:020000040800F2
:1000000068980724990300080D5900900F48009044
:10001000A5030008B1150090937100900000000046
:100020000000000000000000000000008B6700904E
:1000300013190090000000000F590090E368009031
:10004000B3030008B3030008B3030008B3030008B8
:10005000B3030008B3030008B3030008B3030008A8
:10006000B3030008B3030008B3030008B303000898
:10007000B3030008B3030008B3030008B303000888
:1000800041170090B3030008B3030008B30300084E
:10009000B3030008B3030008B3030008B303000868
:1000A000B3030008B3030008B3030008B303000858
:1000B000B3030008E9680090F5680090B3030008F6
:1000C000B3030008B3030008B3030008B303000838
:1000D000B303000869130008B3030008B303000862
:1000E000B3030008B303000800000000B3030008D6
:1000F000B3030008B3030008B3030008B303000808
:10010000B3030008B3030008B3030008B3030008F7
:10011000B3030008B303000829690090B303000883
:10012000B3030008B3030008B3030008B3030008D7
:10013000B3030008B3030008B3030008B3030008C7
:1001400000000000000000000000000000000000AF
:10015000B3030008B3030008B3030008B3030008A7
:10016000B3030008B3030008B3030008B303000897
:10017000B3030008B3030008B3030008B303000887
:10018000B3030008B3030008B3030008B303000877
:10019000B3030008B3030008B3030008B303000867
:1001A000B3030008B3030008B3030008B303000857
:1001B000B3030008B3030008B3030008B303000847
:1001C000B3030008B3030008B3030008B303000837
:1001D000B3030008B3030008B3030008B303000827
:1001E000B3030008B3030008B3030008B303000817
:1001F000B3030008B3030008B3030008B303000807
:10020000B3030008B3030008B3030008B3030008F6
:10021000B3030008B3030008B3030008B3030008E6
:10022000B3030008794B0090F94D009000000000E6
:10023000B3030008B303000800000000B303000884
:10024000B3030008B3030008B3030008B3030008B6
:10025000B3030008B3030008B3030008B3030008A6
:10026000B3030008B3030008B3030008B303000896
:10027000B3030008B3030008B30300080000000044
:10028000B303000800000000B303000800000000F2
:1002900000000000B303000800F002F800F064F86A
:1002A0000AA090E8000C82448344AAF10107DA45D1
:1002B00001D100F059F8AFF2090EBAE80F0013F0BF
:1002C000010F18BFFB1A43F001031847D0160000B6
:1002D000F01600000A444FF0000C10F8013B13F038
:1002E000070408BF10F8014B1D1108BF10F8015B8F
:1002F000641E05D010F8016B641E01F8016BF9D182
:1003000013F0080F1EBF10F8014BAD1C0C1B09D1D8
:100310006D1E58BF01F801CBFAD505E014F8016B4A
:1003200001F8016B6D1EF9D59142D6D370470000DC
:100330000023002400250026103A28BF78C1FBD8EE
:10034000520728BF30C148BF0B6070471FB501F08E
:1003500017FB00F0BBF804000020002101F0FAFABE
:10036000E0601FBD10B510BD00F0B8F81146FFF7F2
:10037000EDFF01F069F800F0D6F803B4FFF7F2FFE3
:1003800003BC01F023F8000030BF72B6704762B6BC
:10039000704780F30888704709488047094800473C
:1003A000FEE7FEE7FEE7FEE7FEE7FEE7FEE7FEE725
:1003B000FEE7FEE704480549054A064B7047000082
:1003C000E512000899020008688C07246898072441
:1003D000688E0724688E072453EA020C00F06980B7
:1003E0002DE9F04B4FF00006002B1FBFB3FA83F549
:1003F00003FA05F424FA05F65E4012BF1643B2FA7A
:1004000082F502FA05F4C5F120051EBF22FA05FCAB
:1004100044EA0C04203556EA044C4FEA144418BF51
:10042000641C4FF000084FF00009904271EB030C80
:1004300039D3002919BFB1FA81F701FA07F6B0FAEA
:1004400080F700FA07F6C7F120071EBF20FA07FC65
:1004500046EA0C062037B6FBF4FCA7EB0507103F75
:1004600007F01F0BCBF120060CFA0BFB2CFA06F65B
:1004700044BFB3460026202FA4BF5E464FF0000BBA
:100480005BEA060C08BF4FF0010B19EB0B09ABFB45
:10049000027C48EB0608C01B06FB02CC0BFB03CC1E
:1004A00071EB0C01C1E70B46024641464846BDE8E8
:1004B000F08B13B54FF000004FF00001AFF3008058
:1004C000BDE81C4070477047704770470048704750
:1004D000248C072400487047048C07247546FFF7D6
:1004E000F9FFAE4605006946534620F007008546F1
:1004F00018B020B5FFF75EFFBDE820404FF00006C2
:100500004FF000074FF000084FF0000B21F00701FB
:10051000AC46ACE8C009ACE8C009ACE8C009ACE83E
:10052000C0098D46704710B50446AFF300802046E1
:10053000BDE81040FFF721BF42F6B12CC9F2000C14
:10054000604744F27D5CC9F2000C604744F26F5C86
:10055000C9F2000C604744F2677CC9F2000C6047A6
:100560004AF2053CC9F2000C604749F6617CC9F2C9
:10057000000C60474BF6C10CC9F2000C60474AF210
:10058000F90CC9F2000C60474DF2F15CC9F2000CA5
:10059000604748F24B5CC9F2000C604748F2C74C18
:1005A000C9F2000C604748F2356CC9F2000C604794
:1005B00048F2115CC9F2000C604748F2936CC9F232
:1005C000000C60474BF2CD1CC9F2000C604748F2AA
:1005D000FD6CC9F2000C604748F68D2CC9F2000C86
:1005E00060474AF2152CC9F2000C60474AF2ED0C44
:1005F000C9F2000C604749F6510CC9F2000C604783
:100600004AF2595CC9F2000C604746F6350CC9F253
:10061000000C60474BF6794CC9F2000C60474CF671
:10062000955CC9F2000C604744F2FD6CC9F2000C05
:10063000604740F2895CC9F2000C604702480168DB
:1006400041F0010101607047200400582DE9F84F86
:100650006C4C00224FF0B04A4FF0010B4FF0030EEC
:100660004FF00F090B680BFA02F73B40BB4270D109
:100670004D68022D01D0122D12D1D50800EB850C4A
:10068000DCF820605507ED0E09FA05F826EA0806A1
:10069000D1F8108008FA05F848EA0608CCF820805E
:1006A000D0F80080560091F804C00EFA06F50CF060
:1006B000030C28EA05080CFA06FC4CEA080CC0F802
:1006C00000C0D1F804C0BCF1010F08D0BCF1020F8A
:1006D00005D0BCF1110F02D0BCF1120F16D1D0F829
:1006E00008C0D1F80C802CEA050C08FA06F848EA94
:1006F0000C08C0F80880D0F804C02CEA070C0F7969
:10070000C7F30017974047EA0C074760C768AF4335
:100710008D68B5403D43C5604D68ED006BD53A4DE1
:100720002E6846F002062E602D6822F0030606F1C0
:10073000B04605F002050095D6F808C495072F0FBE
:1007400009FA07F52CEA050C304DA84202D1002524
:100750002EE050E02E4DA84201D1012528E02D4D7C
:10076000A84201D1022523E02B4DA84201D1032547
:100770001EE02A4DA84201D1042519E0284DA842C7
:1007800001D1052514E0274DA84201D106250FE02F
:10079000254DA84201D107250AE0244DA84201D1E8
:1007A000082505E0224DA84201D1092500E00A25CF
:1007B000BD4045EA0C05C6F8085425684E689D43BF
:1007C000F60300D51D43256065684E689D43B6035A
:1007D00000D51D436560DAF8005056464F689D43CA
:1007E000FF0200D51D43356075684F689D43BF0209
:1007F00000D51D437560521C102AFFF433AFBDE8CD
:10080000F88F000080000058F4440258000002589D
:100810000004025800080258000C02580010025848
:100820000014025800180258001C025800200258F8
:10083000002402580069084000D0012070470AB126
:10084000018370474183704701488068704700000A
:100850005C0000240248816802781144816070477E
:100860005C000024052010B500F0A2F80F2000F075
:1008700007F808B1012010BD00F06CF8002010BD91
:1008800070B50D4D04464FF47A712878B1FBF0F045
:100890000A490968B1FBF0F000F0A4FC48B9102C3B
:1008A00007D200222146501E00F062F800206C6042
:1008B00070BD012070BD00005C0000240000002419
:1008C000134A41781160111D03780A1DE3B1436892
:1008D0000B60017BC37A090741EA0361837A41EA2D
:1008E000C341437B41EA8341837B41EA4341C37B6C
:1008F00041EA0341437A41EA0321037A007841EA5D
:100900004301014311607047002008601060704788
:1009100098ED00E0BFF35F8F0448016821F4803157
:1009200001600249002070310860704724ED00E04A
:10093000074940F00100086005487038016841F43B
:1009400080310160BFF34F8FBFF36F8F704700009E
:1009500094ED00E07047002809DB012100F01F0240
:1009600091404009800000F1E020C0F8001170477C
:100970000E4BF0B41B68C3F30223C3F10704042C2D
:1009800000D904241D1D072D01D2002300E0DB1E29
:10099000012606FA04F56D1E0D409D409E40761E10
:1009A000164045EA0601F0BC00F000BD0CED00E089
:1009B000064A00F0070110684FF6FF03184040EAAE
:1009C0000120034908431060704700000CED00E06F
:1009D0000000FA052DE9F047DFF8BC9104460E4609
:1009E000D9F8000000F00700B0420CD2D9F800108E
:1009F00021F007013143C9F80010D9F8000000F0D8
:100A00000700B0427ED12078DFF89081800707D5BB
:100A1000D8F80010E26821F00F011143C8F8001067
:100A20002078C00762D0D8F80010A26821F4706165
:100A30001143C8F8001059496068183902281CD0C1
:100A400003281DD0096801281DD04907002960DA54
:100A5000524F083F396821F0070101433960FFF721
:100A6000F3FE0546606841F28831022813D003285E
:100A70001ED001288A4627D034E009688903E5E7BB
:100A800009688901E2E7C905E0E7FFF7DDFE411BE0
:100A9000514501D923E08A463868C0F3C2000228D4
:100AA000F3D123E0FFF7D0FE411B514501D916E0F9
:100AB0008A463868C0F3C2000328F3D116E0FFF776
:100AC000C3FE411B51450AD83868C0F3C200012853
:100AD000F5D10BE0FFF7B8FE411B514502D90320C9
:100AE000BDE8F087386810F0380FF3D1D9F800105E
:100AF000484601F00701B1420DD9016821F0070114
:100B0000314300E005E00160006800F00700B042FA
:100B100001D00120E4E72078400707D5D8F800107D
:100B2000226921F070011143C8F8001020780107F4
:100B30001B4805D50168626921F07001114301600D
:100B40002178C90605D50168A26921F4E061114345
:100B500001602078800607D51149091D0868E269FF
:100B600020F070001043086000F066F8D8F800101C
:100B70004FF4807292FAA2F201F47061B2FA82F23A
:100B8000D140084A515CC840074908600F20FFF770
:100B900077FE0020A4E7000000200052184402580D
:100BA0001C4402588A1900080000002410B5FFF701
:100BB000C3FC08490968012292FAA2F201F00F0170
:100BC000B2FA82F2D140044A515CC840034908603D
:100BD00010BD0000184402588A19000804000024BF
:100BE00010B5FFF7E3FF07490968102292FAA2F255
:100BF00001F07001B2FA82F2D140034A515CC84060
:100C000010BD00001C4402588A19000810B5FFF7F7
:100C1000CDFF074909684FF4807292FAA2F201F4FD
:100C2000E061B2FA82F2D140024A515CC84010BD84
:100C30001C4402588A1900083548F0B50068364D42
:100C400010F03801334809D00411082904D0334E7C
:100C500010290BD018290BD02046F0BD2968890631
:100C6000FBD52968C1F3C101C840F0BD3046F0BDD5
:100C7000274918310A68096812F00302284BC1F3AA
:100C800005111B68274F03F001033F68DFED260ABB
:100C9000B7EE001AC7F3CC0717FB03F300EE103AC8
:100CA000224BB8EE400A06D0012A01D0022A2BD0EE
:100CB000B4FBF1F008E02A68920603D52A68C2F373
:100CC000C102D040B0FBF1F001EE900A1868B8EE16
:100CD000612AC0F3080001EE900A1868F8EE611A64
:100CE00040EE201A31EE810A22EE000AC0F34620BF
:100CF000401C00EE900AF8EE600A80EE201ABCEE6E
:100D0000C10A10EE100AF0BDB6FBF1F0DCE70000FE
:100D1000104402580090D0030044025840787D01EE
:100D20002C44025834440258000000393044025820
:100D30002DE9F05F04460078DFF8FC8341F2883942
:100D4000DFF8F8A3FE4DC0074ED0D8F8001040469B
:100D5000C1F3C20102291AD00068C0F3C2000328FF
:100D600005D1DAF8000000F0030002280FD0606817
:100D7000B0F5803F12D010B1B0F5A02F19D028687F
:100D800020F480302860286820F4802009E028685A
:100D9000800329D56068002874D025E0286840F4D5
:100DA00080302860606890B1FFF74EFD06464F46E0
:100DB00009E0286840F480202860EFE7FFF744FD51
:100DC000801BB8427DD828688003F7D50CE0FFF778
:100DD0003BFD06464F4604E0FFF736FD801BB84258
:100DE000F0D828688003F7D42078D64F80075AD5EA
:100DF000D8F8001040464FF47C3B11F0380F13D068
:100E00000068C0F3C200032803D1DAF800008007AD
:100E10000AD0E068A8B3296821F0190101432960CC
:100E2000FFF712FD06461DE02868400702D5E0687E
:100E30000028B1D02868E16820F019000843286034
:100E4000FFF702FD064604E0FFF7FEFC801B0228C8
:100E5000B8D828684007F7D507E0FFF7F5FC801BF6
:100E60000228AFD828684007F7D538689BFAABF25C
:100E700020F47C312069B2FA82F29040014339605B
:100E800011E000E0AEE0286820F001002860FFF7E4
:100E9000DBFC064604E0FFF7D7FC801B022891D854
:100EA00028684007F7D42078C00655D5D8F8001038
:100EB00040464FF0F84BC1F3C201012917D000683A
:100EC00000E0EDE0C0F3C200032805D1DAF800002D
:100ED00000F0030001280AD0E069002828682CD01F
:100EE00040F080002860FFF7AFFC064616E0286857
:100EF000C00502D5E069802874D138689BFAABF24E
:100F000020F0F841206AB2FA82F290400143396041
:100F100022E0FFF799FC801B022899D82868C005B9
:100F2000F7D538689BFAABF2216AB2FA82F220F068
:100F3000F8409140084338600EE020F080002860BF
:100F4000FFF782FC064604E0FFF77EFC801B0228C8
:100F500087D82868C005F7D42078000724D5774FB4
:100F600060694C37002838680FD040F001003860C5
:100F7000FFF76AFC064604E0FFF766FC801B0228C8
:100F80008DD838688007F7D50EE020F00100386072
:100F9000FFF75AFC064604E0FFF756FC801B0228C8
:100FA0007ED838688007F7D42078800623D5A069DA
:100FB000002828680FD040F480502860FFF744FCD8
:100FC000064604E0FFF740FC801B022868D828682A
:100FD0008004F7D50FE020F480502860FFF734FC40
:100FE000064605E0D6E0FFF72FFC801B022857D805
:100FF00028688004F7D42078400744D5524F3868D9
:1010000040F480703860FFF71FFC064604E0FFF7ED
:101010001BFC801B642843D83868C005F7D5474FB0
:10102000A068483701280AD008B1052811D03868CF
:1010300020F001003860386820F0040002E03868D1
:1010400040F001003860A06888B1FFF7FDFB06465C
:1010500009E0386840F004003860F0E7FFF7F4FB7F
:10106000811B49451CD838688007F7D50BE0FFF78E
:10107000EBFB064604E0FFF7E7FB811B49450FD871
:1010800038688007F7D4606AF0B3D8F80010C1F36D
:10109000C20103297ED00228286820F0807000E079
:1010A00079E0286003D0FFF7CFFB044687E0FFF725
:1010B000CBFB064604E0FFF7C7FB801B02287BD86A
:1010C00028688001F7D4DAF8001040F2F332914337
:1010D000E26A41EA0211A26A1143CAF8001094F8C8
:1010E00034004FF4FE02218E4002491EA0F500702C
:1010F00080B2C1F308010843218F491E02EA014171
:10110000084394F83C1000E05CE0491E120202EA39
:10111000016108430949083108600B1D19684FF641
:10112000F872A06C914392FAA2F2B2FA82F2904065
:1011300001431960014809E010440258284402584C
:10114000004402580444025800480258001D016837
:10115000226C21F00C01114301600168626C21F0E6
:10116000020111430160016841F4803101600168AE
:1011700041F400310160016841F48021016001689F
:1011800041F001010160286840F080702860FFF79D
:101190005BFB01E018E00FE0044604E0FFF754FBBE
:1011A000001B022808D828688001F7D50AE0FFF75D
:1011B0004BFB001B022802D90320BDE8F09F2868E2
:1011C0008001F4D40020F8E70120F6E74FF0E02199
:1011D0000428086903D020F004000861704740F03B
:1011E0000400FAE7401EB0F1807F10B501D3012062
:1011F00010BD4FF0E02460610F21601700F0D6F8B9
:101200000020A06107202061002010BD10B50068FB
:1012100086B01B49884230D11A48016841F001016B
:101220000160006800F00100059016481030016868
:1012300041F01001016000680121134C00F0100022
:1012400005904FF4007000900220CDE90101039059
:101250000720694604902046FFF7F8F94FF48061B3
:10126000204600916946FFF7F1F92520FFF773FB4F
:10127000032225201146FFF77BFB06B010BD0000BE
:1012800000100140E04402580000025830B50068E8
:10129000114988420CD1114A5088010408D41146E2
:1012A0004FF000034404097806D50A2901D0538081
:1012B00030BD40F400400DE00D2909D0084DC0F3C9
:1012C0000D04401C80B2C72829555080EFD830BD8E
:1012D00040F48040508030BD001001405400002494
:1012E0002C1900241C48016841F4700101601B495D
:1012F000086840F001000860184A002010321060B1
:101300000A68174B1A400A60144A18321060121DFE
:101310001060121D1060114A28321060121D1060FA
:10132000121D1060121D1060121D1060121D106041
:10133000121D1060121D10600A6822F480220A60DB
:1013400006496031086001200649C1F80801C0065D
:10135000014980390860704788ED00E00044025878
:101360007FEDF6EA0080005170B50D4D00240D4868
:10137000FFF7E7F802E0641CAC4204D80948FFF725
:10138000E5F82028F7D1002402E0641CAC4206D81E
:10139000054901220348FFF7DEF80028F5D170BDAA
:1013A000FFFF0100F4190024540000240907090E6E
:1013B000002804DB00F1E02080F80014704700F002
:1013C0000F0000F1E02080F8141D70477047000006
:1013D00010B504460420FFF7F9FE0148046010BD73
:1013E0005000002470B5002405464FF47A7603E0DF
:1013F000304600F005F8641CAC42F9D370BD000023
:1014000070B54FF0E02500216C69094AAB6912689C
:101410005043AA699A42FCD002D2A3EB020302E035
:10142000A4EB02063344194413468142F1D370BD44
:10143000500000240349CA695206FCD5C2B20A858D
:1014400070470000001001400EB500F0CBF9FFF727
:1014500009FA042302220521A02000F007FA4FF424
:10146000C870FFF7B5FF4FF4E13000F057FAFFF70F
:1014700077F8FFF77AF8FFF77DF8FFF780F8FFF7C6
:1014800083F85248416864208847FFF782F80021BA
:101490000120FFF783F801210846FFF784F819209F
:1014A000FFF786F80F20FFF788F80020FFF78AF88B
:1014B0000120FFF787F80220FFF784F80320FFF7E9
:1014C00081F80420FFF77EF80520FFF77BF8FFF78F
:1014D0007EF83F4C01223FA12068FFF77DF860684D
:1014E00001223DA1FFF778F8A06801223BA1FFF798
:1014F00073F83B4E10244FF478454FF6FF77356074
:1015000015E038A01023C822CDE9004032211E206A
:10151000FFF767F8C820FFF765FF42230097F02226
:1015200032211E20FFF762F8C820FFF75BFFFFF7AC
:1015300062F80028E5D101203560FFF761F8002549
:101540002BA08DE831001023C82232213C20FFF768
:101550005CF82DA08DE831001023C82246213C20E4
:10156000FFF753F82CA08DE831001023C8225A2130
:101570003C20FFF74AF82DA08DE831001023C82247
:101580006E213C20FFF741F82CA08DE8310010239C
:10159000C82282213C20FFF738F82EA08DE83100C8
:1015A0001023C82296213C20FFF72FF840F2DC548C
:1015B0002046FFF717FF44F61F614810FFF72AF88F
:1015C0002046FFF70FFFFFF72AF8FCE76001002431
:1015D000801A0024303A0000313A0000323A00000C
:1015E00024000024466F6E74204572726F722100D1
:1015F000B1B1BCABD0C7483735302F46373530BFD7
:10160000AAB7A2B0E5000000CAD3C6B5B2A5B7C557
:10161000C6F7CAB5D1E90000D5FDB5E3D4ADD7D33F
:1016200040414C49454E54454B0000003230313961
:10163000C4EA35D4C23136C8D50000004B45593014
:101640003A4E4558542020204B4559323A50524585
:10165000560000004B45595F55503A464620202021
:101660004B4559313A5245570000000054482DE986
:10167000F041524C86B0016841F0020101600168FE
:1016800041F0200101604E480C38016841F480416E
:10169000016040200090022001900320DFF82481A7
:1016A000002569460A270497CDE902504046FEF717
:1016B000CDFF042069460926049600904046FEF7B7
:1016C000C5FF0496C020404E694600903046FEF7A4
:1016D000BDFF4FF440706946049700903046FEF716
:1016E000B5FF37486438016841F480410160016802
:1016F00021F4804101603148203881688906FCD49A
:101700003249016032494160016841F001010160E4
:1017100081688906FCD44FF49C7141618168890716
:10172000FCD5C16841F00201C16081688906FCD422
:101730004FF48371416181688907FCD5C16841F02C
:101740000201C16081688906FCD4224941610561BA
:1017500081684907FCD530212170016841F00401FE
:10176000016081688907FCD5C16841F00201C16050
:1017700081688906FCD481688906FCD4C561164954
:1017800041611648016821F48031016013497031CC
:101790000A6822F001020A600A1D156082060F4BDA
:1017A00078331A601B1D0E4A1A6005220A60016810
:1017B00041F48031016006B0BDE8F0812050005254
:1017C000E0440258000402580014025810030001BB
:1017D00001041600C0030003EBEF180F24ED00E036
:1017E0002D000303F0B5BFF34F8FBFF36F8F1D497B
:1017F00000200860BFF34F8FBFF36F8F1A4C216832
:1018000041F400312160BFF34F8FBFF36F8F164952
:1018100070310860BFF34F8F081F006843F6FF75F3
:10182000104E1036C0F34E31C0F3C90305EA411221
:10183000184642EA80773760401EFAD2491EF5D238
:10184000BFF34F8F206840F480302060BFF34F8F8C
:10185000BFF36F8F03484C30016841F00401016011
:10186000F0BD000050EF00E014ED00E070B5294C31
:101870009CB0256825F004052560264C00260C3414
:10188000256845F440452560256805F440451B95CD
:101890002568AD04FCD5012400940CAD0396240406
:1018A000019402240994CDE90A410796082485E8A9
:1018B0000D00CDE910466846FFF73AFA98B9FFF7F0
:1018C000D5FE3F2013900320CDE9140640200101EE
:1018D000CDE91640CDE9180150201A90022113A835
:1018E000FFF778F810B101201CB070BD0A480168FC
:1018F00041F0800101600848F430016841F00201C4
:101900000160006800F002001B90FEF797FE0020C7
:10191000EAE700000C480258004402580B490A4A02
:1019200010B5C1E9002000208860C86008618861A6
:101930000C2048610846FEF777FEBDE810400449D8
:1019400001220248FEF707BE00100140F4190024EE
:101950005400002410B500290AD00878002807D0C8
:1019600005487844FEF765FE002801D0002010BD30
:101970000248784410BD00005A00000052000000E8
:101980004FF04070E1EE100A7047000000000102C5
:10199000030401020304060708090000D81900081F
:1019A0000000002454020000D4020008B01A00080D
:1019B0005402002414960700300300081C000000A5
:1019C00043000000F8FFFFFF0C0000000E000000C5
:1019D0000F0000002E000000113C90D003040117FE
:1019E00062012AFF0181A90CC10B1018EF3C0217FC
:1019F0001013CDB1149081B21490C01A1224344047
:101A00001FC03230323842201CC01A0718133FC39F
:101A100014C003301AF0181CE0012008011D1E60DC
:101A200026019074041A7C041A68041A84041A6447
:101A3000041A6C041301B510089064280190A3D80F
:101A40001008901C270190E5131B087C101301144B
:101A50001B08940813BB861B9040181A4F081AE005
:101A6000301339851B90BC101A11081A88101A936C
:101A7000181AB40813BD841B90FC081AC7081A90E2
:101A8000201A35181A64081A27081A04481AF9186F
:101A90001A2C081A19101AE41822E8142425C31461
:101AA00090D1BC149065BD1B90850C220F02DC0107
:0200000490006A
:1000000066290DF0CE84642900F0A280752900F0E5
:100010009F80782900F0D880632900F0BE8573297D
:1000200000F0C3850020704710B54C1084EA5304DB
:1000300004D54042C1F1000138BF491E1B4204D51E
:100040005242C3F1000338BF5B1E01F043FA14F0C3
:10005000804F04D04042C1F1000138BF491E14F066
:10006000004F04D05242C3F1000338BF5B1E10BDE5
:100070000FB4044910B503AA029800F09BFD10BC10
:100080005DF814FB580000240FB41CB5074B06AAFA
:100090007B4469460090059800F05DFD00206946AC
:1000A00000F06CFD1CBC5DF814FB0000E90A0000C8
:1000B00070B5044685690068C10601D5302600E0A8
:1000C0002026C00707D070BDD4E9012130469047F3
:1000D000206A401C20626D1EF6D570BD70B50446C6
:1000E00085690078C00707D170BDD4E901212020BF
:1000F0009047206A401C20626D1EF6D570BD70B519
:100100000C460546012A05D02878800600D5EA6904
:10011000002302E0012305E05B1C934202D2E05C75
:100120000028F9D1A869E618C01AA861286A1844FD
:1001300028622846FFF7BCFF04E0D5E9012114F846
:10014000010B9047B442F8D32846FFF7C7FF70BDB4
:100150002DE9F0410646002410687529314616A5A0
:1001600010D0AFF30080002802DA404213A507E068
:1001700031688A0701D512A502E0490704D511A507
:10018000012401E0AFF3008000210A2206F12407D8
:1001900009E0B0FBF2FCB0FBF2F302FB1C003030D4
:1001A00078541846491C0028F3D123462A46304685
:1001B000BDE8F04100F061BA000000002D00000031
:1001C0002B0000002000000070B504460D462146BB
:1001D0001068AFF300802188090502D50F4A7A44E0
:1001E00002E00E4A7A440E32002104F1240305E0B5
:1001F00000F00F060009965D5E54491C0028F7D1F7
:1002000020780023000704D5702D02D009B1022305
:1002100011322046BDE8704000F02FBA462301009D
:100220002DE9F05F894604464FF0000ADFF874B10B
:10023000FB44C0F820A02046E1688847002874D01D
:10024000252806D0D4E901219047206A401C20626D
:10025000F1E700265F462046E168884720280546EA
:1002600007DB312D05D2781910F8200C08B10643B0
:10027000F1E7B00701D526F00406C4F81CA000275A
:10028000C4F818A02A2D09D0284606F0D9FF38B3A3
:1002900004EB8708303DC8F8185019E059F8041BE2
:1002A000204604EB87029161E1688847012F0546EB
:1002B00018D1E069002820DA26F020061DE0D8F8E1
:1002C000180000EB800005EB40003038C8F818003B
:1002D0002046E1688847054606F0B2FF0028EED1C7
:1002E000012F0AD02E2D08D12046E16888477F1CB7
:1002F0000546022F46F02006C4DBA069002803DA79
:10030000404246F00106A061F00701D026F0100639
:100310006C2D0BD0682D09D04C2D39D06A2D35D0DD
:10032000742D35D07A2D33D016E038E0E1682F46B1
:1003300020468847B842054609D16C2F26D04FF495
:100340008060E168064320468847054604E06C2F3C
:100350001AD04FF4807006430DB3A5F1410019285F
:1003600002D8203546F400664A46294620462660D3
:100370004E46FFF745FE80B101280BD0F61D26F052
:10038000070000F1080956E74020E4E78020D8E79D
:100390000020D6E706F104094DE7284652E7206A17
:1003A000BDE8F09F1C23010040EA0103024630B57E
:1003B0009B0710D14FF0013400E008C208C91D1B93
:1003C0009D4315EAC41FF8D013F0FF0102F8011B8A
:1003D0000DD01B0AF8E711F8013B002B02F8013B96
:1003E00005D011F8013B002B02F8013BF3D130BDE1
:1003F000421E12F8013F002BFBD111F8013B002BEC
:1004000002F8013BF9D17047032A40F2308010F026
:10041000030C00F0158011F8013BBCF1020F62449F
:1004200098BF11F801CB00F8013B38BF11F8013B30
:10043000A2F1040298BF00F801CB38BF00F8013BDD
:1004400011F0030300F02580083AC0F0088051F84D
:10045000043B083A51F804CBA0E80810F5E7121D58
:100460005CBF51F8043B40F8043BAFF30080D20777
:1004700024BF11F8013B11F801CB48BF11F8012B43
:1004800024BF00F8013B00F801CB48BF00F8012B66
:10049000704710B5203AC0F00B80B1E81850203AF0
:1004A000A0E81850B1E81850A0E81850BFF4F5AF14
:1004B0005FEA027C24BFB1E81850A0E8185044BF9E
:1004C00018C918C0BDE810405FEA827C24BF51F80B
:1004D000043B40F8043B08BF7047D20728BF31F8FF
:1004E000023B48BF11F8012B28BF20F8023B48BF50
:1004F00000F8012B70474FF000020429C0F0128071
:1005000010F0030C00F01B80CCF1040CBCF1020FC6
:1005100018BF00F8012BA8BF20F8022BA1EB0C019B
:1005200000F00DB85FEAC17C24BF00F8012B00F891
:10053000012B48BF00F8012B70474FF0000200B5B7
:10054000134694469646203922BFA0E80C50A0E8F6
:100550000C50B1F12001BFF4F7AF090728BFA0E8A4
:100560000C5048BF0CC05DF804EB890028BF40F870
:10057000042B08BF704748BF20F8022B11F0804FB2
:1005800018BF00F8012B70474FF0013C50F8042BC6
:1005900051F8043B9A4215D1A2EB0C03934313EAA2
:1005A000CC130BD150F8042B51F8043B9A4209D1DB
:1005B000A2EB0C03934313EACC13E7D04FF00000F7
:1005C000704700BFD01A01BAB1FA81F101F01801E9
:1005D00022FA01F0CB40C1F12001DBB2C0B2C01A57
:1005E0002CFA01F3D11A914311EAC311E6D17047F5
:1005F00030B5B0F10A024FEA900E71F100034EEAF5
:10060000817EB0EB0E0061EB91014FEA101E4EEAC5
:10061000017E10EB0E0041EB11114FEA102E4EEA55
:10062000016E10EB0E0041EB11214FEA104E4EEA25
:10063000014E10EB0E0041EB1141401841F1000159
:100640004FEAD00040EA41704FEAD10110EB80053B
:100650004FEA810444EA907444EB01046D1944EBC1
:100660000404521BA3414FF0000348BF0A3200D5D7
:1006700030BD401C41F1000130BD2DE9F0470D4671
:1006800099469246044600F124080168880604D57C
:10069000E06921F01001216000E00120A84201DDA5
:1006A000471B00E00027A1697A1902EB0900081A2C
:1006B000A0612078C00602D42046FFF7F9FC00268E
:1006C00008E0D4E901211AF806009047206A401C8E
:1006D000761C20624E45F4DB2078C0060AD5204601
:1006E000FFF7E6FC06E0D4E9012130209047206ABC
:1006F000401C2062381EA7F10107F4DC07E0D4E9B2
:10070000012118F805009047206A401C2062281E2D
:10071000A5F10105F3DC2046FFF7E0FC2078000698
:1007200002D50220BDE8F0870120FBE770472DE9E4
:10073000FF4F0C461E464FF0FF378BB0D2E9000149
:10074000DDF860800A908A46C1F30A5505B93D4636
:10075000002108464FF00000BAF1000F00F44000FD
:1007600005DA00EB80004FF4400101EA50004FEA47
:100770009059B9F1010F00DDB9460A9850EA4A00D4
:100780000ED044F61050A5F2FF3545432F14B8F1B2
:10079000000F1ED07542291E1EDDC9F100021CE0AB
:1007A000B8F1010F4FF0000001D0302103E0F24317
:1007B00005E02154401CB042FBDB30460022002102
:1007C00021540B99C1F80880C1E900200FB0BDE8A1
:1007D000F08FBD1B6D1CDEE74A4600DA694206A8B1
:1007E00000F03AFA06AB93E8070003AB83E8070092
:1007F00050460A9900F0A6FA8DE80700A0F50050CF
:100800001F3800900398002D0ADD42F21F014A466E
:100810000844002303A90390684600F00FFD09E097
:10082000A0F500504A461F38002303A903906846EC
:1008300000F019FD8DE807000004000C03D04FF014
:10084000FF30410800E01046B8F1000F03D000224D
:10085000009215461EE0751E05D4FFF7C9FE303222
:1008600062556D1EF9D5B3460122084302D000221D
:100870007F1C04E02078302801D100227F1E002A4E
:10088000099784D01DE0112D07DAFFF7B1FE303251
:1008900062556D1C50EA0102F5D1084302D0009860
:1008A000C8B10EE00021681E05E0235C625C635461
:1008B0002254401E491C8142F7DBAB46A81B401E58
:1008C0000990002004F80B000B98099AC0F80880E2
:1008D000C0E9002B7AE711264FF0000857E72DE911
:1008E000F04F88460446D21D22F0070191B0D1E9AD
:1008F0000001CDE90A0106F08BFC02460B98C00FFF
:1009000001D02D2007E02068810701D52B2002E0CF
:10091000202101EAC000032A099001D0072A05DB43
:1009200003464146204600F057F90BE12078800647
:1009300001D5E06900E00620B8F1650F814606D0D8
:10094000B8F1660F18D0B8F1670F70D131E0002010
:10095000B9F1110F009001DB112301E009F101034E
:100960000AAA01A90CA8FFF7E2FEDDE90C70002637
:1009700009F10105834647E001204B4600904FF006
:1009800000470AAA01A90CA8FFF7D1FEDDE90DB0C6
:100990000C995D46002610B909F101000D18B9EB5C
:1009A000050003D4C0F1FF3609F10105A5EB0900EC
:1009B0002BE0B9F1010F01DA4FF001090020B9F184
:1009C000110F0090484601DD112300E003460AAAFA
:1009D00001A90CA8FFF7ABFEDDE90C704D4600261F
:1009E0008346207800070AD4AB4500DA5D4601A8AB
:1009F000012D04DD411911F8011C302907D04F45A4
:100A000002DA17F1040F04DA012082460FE06D1EAE
:100A1000EEE7002F02DCED1B3E4403E0781CA84209
:100A200000DD7D1CB81B00F1010A4FF00047207863
:100A3000000703D4AA4501DB4FF0FF3A0021B7F1CC
:100A4000004F0DF143088DF8431024D002202B23D2
:100A5000002F01DA7F422D230A21021EA0F101009E
:100A600000DC5FB197FBF1FC97FBF1F201FB1C7C12
:100A700017460CF1300C08F801CDEEE7A8F10100A3
:100A800003702188090501D5452100E06521A0F109
:100A9000010800F8011C09980FA9A1EB0807FF1D28
:100AA00000B10120411901EBEA70A1693844081A2C
:100AB000401EA0612078C00602D42046FFF7F8FA55
:100AC000099828B1D4E901219047206A401C20628E
:100AD0002078C00622D52046FFF7EAFA1EE0002E55
:100AE00004DBB34502DD01A8805D00E03020D4E9DD
:100AF00001219047206A401C2062761CAAF1010067
:100B00005FEA000A0AD100F0EAFCC0680168405CB4
:100B1000D4E901219047206A401C2062281EA5F1DB
:100B20000105DCDC07E0D4E9012118F8010B90474E
:100B3000206A401C2062381EA7F10107F3DC204622
:100B4000FFF7CCFA032011B041E6000001694A1C0E
:100B500002610878704700B58FB0CDE901310021FE
:100B6000059105497944CDE9031011466846FFF720
:100B700057FB0FB000BD0000E5FFFFFF0A6802F859
:100B8000010B0A60704710B5436913B1AFF30080E1
:100B900001E0FFF7B4FA012010BD127800F1240142
:100BA0000A7000224A700122EDE711684FF0FF320F
:100BB000E9E70000074B70B50D467B44FFF7CBFF1C
:100BC0000446284600F0BAF810B14FF0FF3070BD6F
:100BD000204670BD770800782DE9F0411F46044695
:100BE00003260168072A01F4006004DB08B116A59A
:100BF00005E016A503E008B115A500E015A521F054
:100C000010002060A069C01EA0610FB1401EA0614D
:100C10002046FFF74DFA4FB1D4E9012138469047FD
:100C2000206A401C2062C01C206206E0206AFAE7AD
:100C3000D4E9012115F8010B9047761EF8D2204621
:100C4000FFF74CFABDE8F0814E414E006E616E0038
:100C5000494E4600696E66002DE9F047814616460A
:100C60008AB0354878440DC88DE80D003248784484
:100C7000801C03AC0DC884E80D0041F69B3008448D
:100C8000372190FBF1F290FBF1F5A5F1800501FB16
:100C900012041B3C02D56442012000E00020DFF872
:100CA00098A080460027FA44AAF1BE0A0EE0E007A9
:100CB0000AD03246684607EB470101230AEB81015F
:100CC00000F0D1FA8DE8070064107F1C002CEED1F3
:100CD000194F7F44AE3F19E0E80715D007EB041029
:100CE0000DF1180A90E80E008AE80E00C068F04284
:100CF00001D1981908903246012306A903A800F0F3
:100D0000B2FA03AB83E807006D10641C002DE3D139
:100D10004FF0010332466946B8F1000F03A802D034
:100D200000F08CFA01E000F09EFAC9E90001C9F870
:100D300008200AB0BDE8F08778190100007B00F0B8
:100D4000800070475FEA400C08BF91F0000F4FEA47
:100D50008C234FEAC12243EA51514FEA1C5018BF7D
:100D600000F5F0404FEA300018BF41F000415FEA63
:100D70006C5C00F02980BCF1FF3F08BF40F0804070
:100D80007047130C06BF12044FF0100C4FF0000C0C
:100D9000130E04BF12020CF1080C130F04BF120152
:100DA0000CF1040C930F04BF92000CF1020CD30F52
:100DB00004BF52000CF1010C11464FF00002A0F1EB
:100DC0001F00A0EB0C00704711F0004F08BF7047E8
:100DD00031F000413FF4D5AF0B0C06BF09044FF0D2
:100DE000100C4FF0000C0B0E04BF09020CF1080CA4
:100DF0000B0F04BF09010CF1040C8B0F04BF890019
:100E00000CF1020CCB0F04BF49000CF1010CCCF12A
:100E10002003A0EB0C0022FA03F302FA0CF241EAE1
:100E2000030100F10100704720F07F4C80EA0300CD
:100E300023F07F47ACEB070303F57C5300F0004041
:100E400003F1FF032DE980494FEA154B09B44FEA3E
:100E5000144325EA0B4E24EA03480FF2042606EB5E
:100E6000132749083E785FEA320203FB0667C7F59D
:100E7000000707FB06F64FEA54374FEAD64606F15D
:100E8000020607FB066CCCF1005C4FEA1C472CEA1B
:100E9000074C07FB06F40CFB06F504EB15464FEA7E
:100EA000961634BF00204FF000404FEAD13706FBC2
:100EB00007FC4FEA1C4C0CFB0BF7D21B03FB0CF797
:100EC00061EB07010CFB0EF7B0EB074072EB17422A
:100ED0000CFB08F734BFA2EB0742B2EB074261EB11
:100EE00017414FEA0C444FEA910706FB07FC4FEA13
:100EF0001C4C0CFB0BF7B0EBC74072EB573203FBFB
:100F00000CF734BFA2EBC742B2EBC74261EB5731DB
:100F10000CFB0EF7B0EBC70072EB57720CFB08F737
:100F200034BFA2EBC702B2EBC70261EB5771039F5C
:100F30004FEA816141EA921104EBCC044FEAD137C8
:100F40004FEA826206FB07FC42EA90124FEA806099
:100F50004FEA1C4C0CFB0BF7D21B03FB0CF761EBAD
:100F600007010CFB0EF7B0EB074072EB17420CFBCE
:100F700008F734BFA2EB0742B2EB074261EB17411F
:100F80004FEA8C554FEA910704EB9C2406FB07FCC3
:100F90004FEA1C4C0CFB0BF7B0EBC74072EB57321F
:100FA00003FB0CF734BFA2EBC742B2EBC74261EBC5
:100FB00057310CFB0EF7B0EBC70072EB57720CFB0E
:100FC00008F734BFA2EBC702B2EBC70261EB57715F
:100FD00015EB4C254FEA816141EA92114FEA82629A
:100FE0004FEAD13742EA901206FB07FC44F10004B5
:100FF0004FEA80604FEA1C4C0CFB0BF7D21B03FB43
:101000000CF761EB07010CFB0EF7B0EB074072EB3E
:1010100017420CFB08F734BFA2EB0742B2EB0742C2
:1010200061EB174115EB1C154FEA813141EA924102
:101030004FEA823242EA90424FEA80304FEA0C7621
:1010400044F1000448EA03434EEA0B484FF0000E17
:10105000B2EB080C71EB030724BF624639464EEB36
:101060000E0E4FF0000B0018524149414BEB0B0B99
:10107000B2EB080C71EB03077BF1000B24BF624657
:1010800039464EEB0E0E4FF0000B0018524149410D
:101090004BEB0B0BB2EB080C71EB03077BF1000B76
:1010A00024BF624639464EEB0E0E51EA020718BFC6
:1010B00046F0010616EB0E7655F1000254F10001E0
:1010C00003D5BDE88901BDE80088BDE88901BDE818
:1010D0000048B619524141EB0101A3F101037047E9
:1010E00080807F7E7D7C7B7A797877767675747365
:1010F000727171706F6E6E6D6C6C6B6A6A69686824
:10110000676666656464636362616160605F5F5EB9
:101110005E5D5D5C5C5B5B5A5A595958585757562F
:101120005655555554545353525252515150505094
:101130004F4F4F4E4E4D4D4D4C4C4C4B4B4B4A4AE6
:101140004A4949494848484747474746464645452A
:101150004544444444434343434242424241414163
:10116000002B9C4630D477002BD01CB54FEA3707B4
:1011700003B44FF010004FF01001BAF1000F06D089
:10118000BCF1000FDCBF40F0080040F008014FF058
:1011900000000FBCBDE810400BF1010BBBF1010FCB
:1011A00008BF5FEA170722BF12F1010211F1010126
:1011B0004FF0004143F1000300F0004043EA00001B
:1011C0007047F9D35708D0E746EA064613F1400FB7
:1011D0004FEA16461FDD13F1200FDFBF16430A4604
:1011E000002120335B42BED0C3F1200746EA064609
:1011F00002FA07F74FEA164646EA0706C3F1200748
:1012000022FA03F201FA07F721FA03F14FF0000383
:1012100042EA0702A7E746EA020646EA06464FEA1E
:10122000164646EA0106BCBF46EA0646360C4FF0B3
:1012300000034FF000024FF0000194E72DE9804CCD
:101240009A46934670B491E8380007C831EA400CDA
:1012500048BF34EA430C03D5FFF7E6FDFFF780FFF4
:10126000F0BCBDE8008C2DE9804C9A46934670B4E2
:1012700091E8380007C810F0804F08BF13F0804F86
:1012800003D100F005F8FFF76BFFF0BCBDE8008C60
:1012900020F07F4780EA030023F07F4C07EB0C032C
:1012A000A3F57C5300F00040A3F1FE0392F0000F81
:1012B00000F0B38095F0000F00F077802DE9014930
:1012C0004FEA11404FEA144621EA004800FB06FCB1
:1012D00024EA064708FB06F607FB08F800FB07F7B9
:1012E00018EB06484CEB164C4FEA124B18EB07482C
:1012F0004FEA15464CEB174022EA0B4E0BFB06FC5F
:1013000025EA06470EFB06F607FB0EFE0BFB07F76A
:101310001EEB064E4CEB164C4FF000061EEB074E34
:101320004CEB174B18EB0B0840F1000018EB0E0BC1
:1013300058EB000840F100008F1A4FF000013CBF4D
:10134000C943661B14BFB5EB040C00213CBFC94365
:10135000F61B4FEA17444EEA8E0E27EA04454FEA81
:101360001C4704FB07622CEA074C05FB07F70CFB44
:1013700005F604FB0CFC16EB074642EB174216EB96
:101380000C4642EB1C421BEB060658EB02024141A5
:1013900046EA9E0601D5BDE80189B619524141EBE6
:1013A0000101A3F10103BDE801894FEA14454FEAA9
:1013B000114724EA054621EA074C05FB07F406FB22
:1013C00007F70CFB06F105FB0CFC11EB074144EBA6
:1013D00017444FEA124711EB0C4144EB1C4422EA3C
:1013E000074C05FB07F206FB07F70CFB06F605FBAF
:1013F0000CFC16EB074642EB174216EB0C4642EB91
:101400001C456A1854F1000148BF7047B619524193
:1014100041EB0101A3F10103704795F0000F37D0B4
:101420004FEA11424FEA144721EA024624EA074CE8
:1014300002FB07F106FB07F70CFB06F402FB0CFCB2
:1014400014EB074441EB17414FEA154714EB0C44EA
:1014500041EB1C4125EA074C02FB07F506FB07F7A9
:101460000CFB06F602FB0CFC16EB074645EB17459A
:1014700016EB0C4645EB1C42121951F1000148BF16
:101480007047B619524141EB0101A3F101037047C6
:101490004FEA14454FEA114724EA054621EA074C72
:1014A00005FB07F106FB07F70CFB06F24FF0000601
:1014B00005FB0CFC12EB074241EB174112EB0C420F
:1014C00051EB1C4148BF7047921841EB0101A3F159
:1014D0000103704740F2D93CC0F6000C604740F26F
:1014E000CD4CC0F6000C604740F6490CC0F6000C2D
:1014F000604740F24D6CC0F6000C604740F6394C36
:10150000C0F6000C604740F6AD3CC0F6000C6047EA
:1015100040F6711CC0F6000C604740F6571CC0F640
:10152000000C604741F20D2CC0F6000C604741F200
:10153000014CC0F6000C604741F2E53CC0F6000CDF
:10154000604740F6151CC0F6000C604740F6C10C21
:10155000C0F6000C604740F6311CC0F6000C604736
:1015600040F6350CC0F6000C604740F28B3CC0F6EC
:10157000000C604740F28F3CC0F6000C604740F61C
:10158000550CC0F6000C604741F28D2CC0F6000CE3
:10159000604740F6E13CC0F6000C604740F60D4C59
:1015A000C0F6000C604740F63F0CC0F6000C6047E8
:1015B000FEE70000084A00204FF4803102E0536B40
:1015C0001B0602D4491EFAD200E011B1034991630F
:1015D000704703207047000000700052FF0FE01FAB
:1015E0000E4A10B5516B11F0450FFBD00C4B4C0758
:1015F00004D5042090639363032010BDC90702D073
:101600000120906310BD1169814201D0102010BDEE
:101610009363506900F0080010BD00000070005294
:10162000FF0FE01F10B50F4C00204FF480320BE08D
:10163000616B11F0450F07D00AB14A0707D5A16BBE
:10164000032041F004010AE0521EF1D2F5E7C90778
:1016500004D0A16B012041F00101A1630249A16303
:1016600010BD000000700052FF0FE01F0849486BDA
:1016700010F0450FFBD0400705D5886B40F0040003
:101680008863032070470348886300207047000088
:1016900000700052FF0FE01F30B5174B05460020C9
:1016A0005A6B12F0450FFBD0540705D5986B40F0EC
:1016B00004009863032030BDD20705D0986B40F03A
:1016C00001009863012030BD1A69AA420ED10B4A6D
:1016D0009A635A6912F4604F03D0910404D5132021
:1016E00030BD120C0A8030BD510401D5102030BD30
:1016F0001104FCD50F2030BD00700052FF0FE01F19
:1017000010B50E4C00204FF480320BE0616B11F0ED
:10171000450F07D00AB14A0707D5A16B032041F056
:10172000040108E0521EF1D2F5E7490604D5A16B89
:10173000002041F04001A16310BD00000070005284
:101740002048F0B4204C214E204A603C0068603EA6
:101750001D4BB83A1D4D984201D91D4903E0A042E6
:1017600003D91949B439096809E0A84202D91649D0
:10177000B839F8E7B04201D9516800E0116811F4B6
:10178000006F1CD098424FF4006102D91048001D30
:1017900008E0A04202D90C48AC3803E0A84203D9C3
:1017A0000948B038016004E0B04201D9D16000E0DE
:1017B000916008480068002801D0F0BC0047F0BCE8
:1017C0007047000000050024B8040240B800024041
:1017D000005402583800002401681823CAB2103A95
:1017E000B2FBF3F2054B6FF30901032A9B5CC3655F
:1017F00000D9091D816508467047000054210190F9
:1018000010B512490123026854188C2CD1B20AD8A1
:1018100014220839B1FBF2F10D4A02EB8102026693
:101820000B4A80320EE018241039B1FBF4F1094C58
:101830002244A82A00D80831074A02EB8102026636
:10184000054A80328B40C0E9192310BDF8ABFDA7D3
:1018500000580258F0FBFDBF0008024010B50179A6
:1018600003684A1E072A14D80A4C23448C2B06D836
:10187000094B03EB8101C1660749443105E0074B81
:1018800003EB8101C16605494431016701219140A3
:10189000416710BDF8ABFDA7FC580258FC08024098
:1018A000014610B500208B694FF0C0748A6A53B1AD
:1018B000B3F5005F15D072B1012A0CD0022A0AD00C
:1018C000032A09D104E01AB1012A06D0022A03D161
:1018D000C96AC90100D5012010BDC96AA142FAD068
:1018E00010BD002AF7D0012AF2D0022AF3D0032A31
:1018F000F3D010BD10B5046863608368402B0368A3
:1019000003D099600068C26010BD9A600068C16031
:1019100010BD7047C268D1E9002342EA03220B8957
:10192000097B1B0443EA01610A43C260002070473F
:101930008268D1E9002342EA03220B89097B1B0458
:1019400043EA01610A4382600020704730B50268B3
:10195000094B1A40D1E901342343D1E903452C4313
:1019600023434C69896943EA442343EA41311143E3
:101970000160002030BD00008901F0FF30B5D1E9E1
:1019800001230D681A43D1E9033423431A434B69F9
:101990001A438B691A43D1E90734496A012D056856
:1019A00007D01A4322430A436FF30E052A4302600D
:1019B0000AE025F4F845234329430B4341680360BB
:1019C0006FF30E010A434260002030BD426942EAD3
:1019D000410141610020704718B5D1E900236FF043
:1019E0001F041A438B68C96804EB431343EA41217F
:1019F0000A4300920261002018BD0000F0B5D1E951
:101A000000346FF00F055B1E2E0105EB0414234319
:101A10008C682F034FEA054C0D8A06EB04248E8A4E
:101A20002343CC68097E4FF07F4E012A07EB054522
:101A30000CEB06560EEB01610CD082683F1107EBF0
:101A4000043423432B4333430B4302F070421343CC
:101A500083600FE08768084A17402203C468A2F534
:101A6000805232433A4382602B430B4304F070446C
:101A70002343C3600020F0BDFF0F0FFF38B50A4DB0
:101A800004464FF0AA306A46009004230021A8794A
:101A9000604303F02BFFA879042300216A466043CA
:101AA000401C03F023FF38BD7C0300242DE9FC47D4
:101AB000254F00258946064600240DF1040810E054
:101AC000CDF800804A46798870438B08002103F0E6
:101AD00085FD7888BDF80410B1EB900F04D1641C2B
:101AE000A4B2B879A042EBD8B879A04202D10020C4
:101AF000BDE8FC87304603F047FB20B113A0294620
:101B0000FEF7B6FA16E0B9F1FF3F13D000200AE065
:101B10007A8806FB001093080022114603F0BAFEF3
:101B2000BDF80400401CADF80400B879BDF80410FD
:101B30008842EDD86D1CADB2032DBDD309A031464E
:101B4000FEF796FA0120D3E77C0300246572726FDA
:101B50007220657261736520626C6F636B3A2564F5
:101B60000D0A000062616420626C6F636B20636821
:101B700065636B65643A25640D0A000038B5114D44
:101B8000044600206A468DF8000001230021A87950
:101B9000604303F05BFD9DF80000FF2801D00220A8
:101BA00038BDA879012300216A466043401C03F038
:101BB0004DFD9DF80000FF2801D0012038BD002018
:101BC00038BD00007C0300242DE9F84F91462F4AD0
:101BD0008A461D469179B0FBF1F3B0FBF1F801FBA9
:101BE000130B404600F0B8F8284907464889B84228
:101BF00002D20120BDE8F88F002428E05C4516D30E
:101C0000ADB14A88A2EB0A01A94201D28EB200E02E
:101C1000AEB24B4607FB004108FB0040524600961F
:101C200003F020F9AD1B4FF0000AB14405E007FBBB
:101C3000004108FB004003F0F7F930B13846FFF7E8
:101C40001DFF012000F024F8CBE7641CA4B20F496B
:101C50008879A042D2D80D46A879A04214D138463E
:101C600000F028FA404603F08FFA6A89002069697B
:101C700008E031F81040444502D121F8107003E02B
:101C8000401C80B28242F4D80020B3E77C030024D9
:101C9000F8B52A4D002106464FF6FF7003E06A6949
:101CA00022F81100491C6A898A42F8D80020A881CC
:101CB00004461CE0A879042300216A46604303F02F
:101CC000C5FC9DF80000FF280CD1B6B1A87901230E
:101CD00000216A466043401C03F0B8FC9DF80000F8
:101CE000FF280AD016A02146FEF7C2F9641C6989B4
:101CF000A142DFD86A69002016E09DF803109DF824
:101D0000020000EB01206989814202D9696921F84A
:101D10001040A889401CA881E8E732F810308B42B7
:101D200001D3E88102E0401C8142F6D8E8896428AA
:101D300001D20220F8BD0020F8BD00007C03002481
:101D400062616420626C6F636B20696E6465783ACF
:101D500025640D0A0000000070B5104E104C71890A
:101D60002268491E914200D2216000F001052068DE
:101D7000294600F017F8411C0AD170892168401EDD
:101D8000884207D92946206000F00CF8411C01D098
:101D9000206070BD4FF0FF3070BD00007C03002458
:101DA00034000024F8B5401C0D46002104000091C9
:101DB00012D00C4F012626EA0400A8420AD1B879B5
:101DC000611E04236A464843002103F03FFC00984B
:101DD000401C04D0641EEED14FF0FF30F8BD601EF1
:101DE000F8BD00007C030024F8B5254E00273C46D2
:101DF000B78113E02046FFF7C1FE70B9204603F01B
:101E0000C3F938B11FA02146FEF732F92046FFF78B
:101E100035FE02E0B089401CB081641C7089A0428C
:101E2000E8D8B1891BA0FEF723F9B089642801D254
:101E30000120F8BDC0EB40100097642100EB40008A
:101E4000B0FBF1F5002410E02046FFF797FE58B9EB
:101E5000B07902236A461946604303F047FD0098B3
:101E6000401C0090A84203D0641C7089A042EBD8AB
:101E70000120FFF70DFF0028DBD00220F8BD000095
:101E80007C03002442616420626C6F636B3A2564BA
:101E90000D0A0000676F6F645F626C6F636B6E7535
:101EA0006D3A25640D0A000010B503F099F900BBE6
:101EB000184C616911B1002009F000FA60894100F5
:101EC000002009F007FA606161894900FEF713FB01
:101ED000606970B10120FFF7DBFE60B10EA0FEF774
:101EE000C7F8FFF781FF90B111A0FEF7C1F80220FB
:101EF00010BD012010BD618912A0FEF7B9F8A189BB
:101F000016A0FEF7B5F8E18919A0FEF7B1F8002098
:101F100010BD00007C030024666F726D6174206E3A
:101F2000616E6420666C6173682E2E2E0D0A0000AF
:101F3000666F726D6174206661696C6564210D0A5B
:101F400000000000746F74616C20626C6F636B2022
:101F50006E756D3A25640D0A00000000676F6F64AE
:101F600020626C6F636B206E756D3A25640D0A00FC
:101F700076616C696420626C6F636B206E756D3A7C
:101F800025640D0A000000000549CA89824202D278
:101F90004FF6FF707047496931F810007047000034
:101FA0007C0300242DE9FF5F00269B4615468246F0
:101FB00079E03F4C6088B0FBF5F1A079414301988E
:101FC0008319B3FBF1F0FFF7DFFF6189814203D88A
:101FD000012004B0BDE8F09F354C6188A479B1FBC5
:101FE000F5F26243B3FBF2F702FB17326A43B2FB2E
:101FF000F1F300FB0437B2FBF1F001FB1028A1EB79
:102000000800B0FBF5F084B2ABEB0600A04200D2B2
:1020100084B252461FFA88F1384604FB05F91FFACC
:1020200089F303F0B5F9032809D11FFA89F3524661
:102030001FFA88F1384603F0ABF9032804D00428CE
:102040002ED068B30220C4E71FFA88F14B465246EF
:102050003846FFF7B9FDDFF858804FF0FF3198F8A8
:102060000600B7FBF0F0FFF721FD80B998F80600F5
:102070000021B7FBF0F0FFF719FD814698F8060044
:10208000B7FBF0F003F080F8B9F1000F08D098F832
:102090000600B7FBF0F0FFF7F1FC0120FFF7F8FDB9
:1020A00005FB04AA26445E4583D3002091E7000087
:1020B0007C03002408B5CC216A4601238DF800106A
:1020C000034989794843194603F010FC08BD000014
:1020D0007C0300242DE9FF4F0027154685B04FF003
:1020E000FF3B7BE0404C6088A179B0FBF5F04843B2
:1020F0000699CB19B3FBF0F0FFF746FF61898046E4
:10210000414503D8012009B0BDE8F08F364A508818
:102110009279B0FBF5F15143B3FBF1F401FB1431BB
:1021200001FB05FABAFBF0F308FB0231BAFBF0F24F
:1021300002910899C91B03918CB200FB12A9A0EB74
:10214000090080B2B0FBF5F0ADF80400844200D382
:1021500004464FF0FF3201A8009004FB05F61FFA79
:1021600089F10298C6F38F0303F038FA08B1022010
:10217000C9E7BDF80400B0EB960F0FD1B3B2059AD2
:102180001FFA89F1029803F0D5FA38B9C3454146E0
:1021900020D00846FFF78EFFC346D8B11248817998
:1021A00040884143A1EB0A000399B0FBF5F08CB2E3
:1021B00080B2ADF80400844200D30446059A1FFAA9
:1021C00089F1029804FB05F63346FFF7FDFC08B1E0
:1021D000032098E7059827443044059008988742E3
:1021E00080D300208FE700007C030024F0B500249A
:1021F0000E460822074601212546102003F0F6FC72
:102200001020FFF7EDF900282ED13A0401213720E4
:1022100003F0ECFC3720FFF7E3F9002824D1012379
:1022200003220821401E03F0EDFC0022012133208F
:1022300003F0DCFC3320FFF7D3F9002814D1174951
:1022400040F22A524B6B134206D14B6B1B03F9D45D
:10225000D1F88040D1F880504A6B120705D5886BC1
:1022600040F0080088630420F0BD4A6B920705D552
:10227000886B40F0020088630220F0BD4A6B920632
:1022800005D5886B40F0200088630620F0BD044A25
:102290008A6321BA716029BA3160F0BD00700052C2
:1022A000FF0FE01F30B40C4615460146500700D022
:1022B00001204B7800EBD50010FB05F0C2B2087886
:1022C000812809D3402B07D3FF2B05D0FF2803D04B
:1022D0007F2B0CD2403B0BE00023184603E05B1C35
:1022E00004F8010BDBB29342F9D330BC7047413B99
:1022F0008138C0B2D9B2C0EB401303EB801001EBC0
:1023000040000D4950430C2D0CD0102D0DD0182D30
:102310000ED0202DE9D1D1F821100144204630BC47
:102320000BF0AAB9D1F80910F7E7D1F81110F4E7CA
:10233000D1F81910F1E70000988B07242DE9F0413E
:10234000294E044600680025DDF818C04FF4956753
:1023500000EB060EBE4519D8D4F808E0BEF1800F98
:1023600014D094F834E0BEF1010F12D04FF0010EFA
:1023700084F834E094F835E0BEF1010F0BD04FF44F
:102380000060606501252846BDE8F0814FF480704B
:10239000F7E70220F8E74FF0020E84F835E04FF03F
:1023A000000EC4F854E0D0F800E04EF4802EC0F8DF
:1023B00000E02068036163462046FFF79BFA94F82B
:1023C0005C203F21A06D91408160D4E919014160FA
:1023D000E06E10B1D4E91C014160206881190168E8
:1023E00041F001010160CEE7F0FFFDBF10B528B15B
:1023F00090F83510022903D080214165012010BDDD
:102400001D4A4FF4956301688C189C4207D804223A
:1024100080F83520086820F00100086029E00C6889
:1024200024F00E040C6001680A440A6822F00102DC
:102430000A60016E0A6822F480720A6090F85C30CB
:10244000012202FA03F10D4B1960D0E919134B6018
:10245000C16E31B10B6823F480730B60D0E91C139B
:102460004B60002180F8341080F83520016D01B1F7
:102470008847002010BD0000F0FFFDBF0454025843
:1024800070B5040024D094F83500022822D02068CA
:102490002A49036823F001030360206800250144F2
:1024A000B1F5956F1AD80560206845602068856091
:1024B0002068C560206805612120216848612046A8
:1024C000FFF78AF994F85C203F219140816016E083
:1024D000012070BD4FF400606065F9E718490144C0
:1024E0008C290CD8056020684560206885602068CC
:1024F000C560012094F85C108840124908602046AD
:10250000FFF77EF9206E18B10560D4E9190141602A
:102510006068401E072807D82046FFF79FF9E06E45
:102520000560D4E91C014160E5662567656765655E
:1025300084F83550002084F8345070BDF0FFFDBFA2
:10254000F8ABFDA7045402582DE9F0470446FEF706
:10255000CBFF0646BCB15E492027206800254FF01E
:10256000010A4FF0030842184FF040090221B2F56A
:10257000956F50D884F8345084F83510016821F0F4
:102580000101016009E00120BDE8F087FEF7ACFF22
:10259000801B052801D9676579E020680068C007BD
:1025A000F4D121680A684B480240D4E90203184379
:1025B000D4E9043633431843A3691843E369184345
:1025C000236A18431043626A042A03D1D4E90B2317
:1025D0001A43104308602068406920F00701606AD0
:1025E000042840EA01060BD1A06A0643E06A38B12C
:1025F0002046FFF755F918B1C4F85490504647E00B
:10260000206846612046FFF7E7F894F85C203F21F8
:10261000914081602DE0304BC2188C2A35D884F867
:10262000345084F83510026847F6F0718A43A16887
:10263000402925D0802925D00021E66841EAD6012D
:10264000266941EAD601666941EAD601A66941EAEE
:10265000D601E66907EAD6063143266A41EA161131
:1026600011430160206814211844B0FBF1F0800090
:10267000E0652046FFF7C4F8A06880280BD00BE087
:102680001021DAE74FF48041D7E7C4F85490404670
:1026900084F8350077E76560216E20790860D4E919
:1026A000190141606068401E072808D82046FFF7DE
:1026B000D5F8E06E0560D4E91C01416002E0E566F2
:1026C00025676567656584F835A000205CE7000034
:1026D000F0FFFDBF3F8010FEF8ABFDA72DE9F041F4
:1026E000044690F8A00015460F4601281DD001268B
:1026F00084F8A060022084F8A10005EB850000EBBF
:10270000C500342204EB80003830FDF7C2FE2A46B3
:102710003946204602F0BEFA2068466284F8A1607D
:10272000002084F8A000BDE8F0810220FBE7000053
:1027300070B5040004D094F8A100002510B106E0A3
:10274000012070BD204684F8A05000F06BF80220F4
:1027500084F8A1002068816921F070418161D4E989
:1027600001100143D4E90302104301432068826948
:10277000114381612068826829490A408260A08AE9
:10278000020420688368A66933431343836020688A
:10279000C2680A40C260A08B02042068C368266A2F
:1027A00033431343C360206802690A400261A08C6E
:1027B000020420680369A66A334313430361206857
:1027C00042690A404261A08D010420684269236B7E
:1027D0001A430A43426194F83500020294F8360025
:1027E00001042068C36A03F07F43C3622068C36AA0
:1027F000114394F8346033430B43C3622068416B48
:1028000041F0060141632068816941F00101816165
:10281000C4F8A450012084F8A100002070BD00007D
:1028200000F800F02F4810B586B0016841F00801AB
:102830000160006800F0080005902A48103801681F
:1028400041F010010160006800F01000059025487B
:10285000001F016841F002010160016801F00201FE
:102860000591016841F480710160016801F4807193
:102870000591016841F400710160016801F4007183
:102880000591016841F48061016000680324694694
:1028900000F4806005902020009001200190CDE997
:1028A00002041148FEF725FE4FF4E040009002209C
:1028B000019000206946CDE902040E2004900B48E7
:1028C000FEF717FE48F67C60009009486946FEF75F
:1028D00010FEFF20009007486946FEF70AFE06B08A
:1028E00010BD0000E44402580004025800200258C1
:1028F000002402580028025870B5044690F8A00041
:102900000E46012820D0012584F8A050022084F82A
:10291000A10003EB830000EBC30004EB80018E6396
:10292000086E3044C1E90F02486E104448643831E3
:102930001A46204602F0AEF92068456284F8A1509C
:10294000002084F8A00070BD022070BD70B5044660
:1029500090F8A0000E46012820D0012584F8A05050
:10296000022084F8A10003EB830000EBC30004EB1A
:102970008001886B3044C863086C10444864C1E926
:10298000186238311A46204602F084F92068456200
:1029900084F8A150002084F8A00070BD022070BD12
:1029A00070B5040015460E4603D094F8210010B10E
:1029B00007E0012070BD002084F82000204600F0D0
:1029C0001FF82068211DFEF7C1FFD4E9000231463F
:1029D000FEF7AEFFD4E900022946FEF79BFF206810
:1029E000016841F0040101600448016841F00041C0
:1029F0000160012084F82100002070BD00400052D9
:102A0000274870B586B0016841F4805101600068C4
:102A100000F48050059022480C30016841F0080114
:102A20000160016801F008010591016841F01001A1
:102A30000160016801F010010591016841F0400159
:102A40000160006800240325164E00F04000059048
:102A500040206946CDE900040120CDE90205304659
:102A6000FEF747FD01A94FF400700090022081E8B5
:102A700031000C2004900C486946FEF73AFD4DF6F3
:102A800033006946029400903046FEF732FD4FF461
:102A9000F060009005486946FEF72BFD06B070BD5A
:102AA000D4440258000C0258001802580010025872
:102AB00010B5FEF723FD084909684FF4807292FAB9
:102AC000A2F201F47061B2FA82F2D140034A515C81
:102AD000C8400349086010BD184402588A1900080C
:102AE0000000002410B5FEF70EFD0749096810220A
:102AF00092FAA2F201F07001B2FA82F2D140034AD6
:102B0000515CC84010BD0000204402588A190008DA
:102B1000364930B50A68096812F00302344BC1F334
:102B200005111B68334C03F001032468DFED320A02
:102B3000B7EE001AC4F3CC0414FB03F300EE103A12
:102B40002E4BB8EE400A07D02D4C012A01D0022AA4
:102B50004AD0B4FBF1F10BE0244C283C22689506E6
:102B6000284A03D52468C4F3C104E240B2FBF1F162
:102B700001EE901A1968B8EE612AC1F3080101EE5E
:102B8000901A1968F8EE611A40EE201A31EE810AA7
:102B900022EE000AC1F34621491C00EE901AF8EE1D
:102BA000600A80EE201AFCEEC10AC0ED000A196826
:102BB000C1F30641491C00EE901AF8EE600A80EE5F
:102BC000201AFCEEC10AC0ED010A1968C1F30661C2
:102BD000491C00EE901AF8EE600A80EE201ABCEE56
:102BE000C10A80ED020A30BD074ABFE728440258F7
:102BF0002C44025834440258000000393044025832
:102C000000093D000090D00340787D01364930B581
:102C10000A68096812F00302344BC1F305311B68DE
:102C2000334C03F010032468DFED320AB7EE001ACC
:102C3000C4F3CC0414FB03F300EE103A2E4BB8EEB1
:102C4000400A07D02D4C012A01D0022A4AD0B4FBF9
:102C5000F1F10BE0244C283C22689506284A03D564
:102C60002468C4F3C104E240B2FBF1F101EE901A12
:102C70001968B8EE612AC1F3080101EE901A1968CB
:102C8000F8EE611A40EE201A31EE810A22EE000AB7
:102C9000C1F34621491C00EE901AF8EE600A80EE5E
:102CA000201AFCEEC10AC0ED000A1968C1F3064102
:102CB000491C00EE901AF8EE600A80EE201AFCEE35
:102CC000C10AC0ED010A1968C1F30661491C00EE92
:102CD000901AF8EE600A80EE201ABCEEC10A80ED70
:102CE000020A30BD074ABFE7284402582C44025864
:102CF0003C440258000000393844025800093D00A5
:102D00000090D00340787D01364930B50A680968E3
:102D100012F00302344BC1F305511B68334C03F42A
:102D200080732468DFED320AB7EE001AC4F3CC04D6
:102D300014FB03F300EE103A2E4BB8EE400A07D016
:102D40002D4C012A01D0022A4AD0B4FBF1F10BE04C
:102D5000244C283C22689506284A03D52468C4F3ED
:102D6000C104E240B2FBF1F101EE901A1968B8EE2D
:102D7000612AC1F3080101EE901A1968F8EE611A90
:102D800040EE201A31EE810A22EE000AC1F34621FC
:102D9000491C00EE901AF8EE600A80EE201AFCEE54
:102DA000C10AC0ED000A1968C1F30641491C00EED2
:102DB000901AF8EE600A80EE201AFCEEC10AC0ED0F
:102DC000010A1968C1F30661491C00EE901AF8EE79
:102DD000600A80EE201ABCEEC10A80ED020A30BD06
:102DE000074ABFE7284402582C440258444402587A
:102DF000000000394044025800093D000090D00313
:102E000040787D012DE9F0434F4A0146DFF83481D7
:102E10000020DFF8309189B04C4C13114C4DB1F5C6
:102E2000806FA8F104064FF080574FF0005C09F165
:102E3000080956D011DC4FF48079494520D0B1F50E
:102E4000007F2CD1D8F8001001F4E07180292ED039
:102E500042DC01B3402922D124E0B1F5006F55D006
:102E60004FF4805949451AD1D8F8001001F4E041D7
:102E7000B1F5005F1BD05EDC69B149450FD111E0AF
:102E8000D8F8001001F00701052908D2DFE801F0A9
:102E9000030A0F2214006846FFF73AFE019809B0B2
:102EA000BDE8F08303A8FFF7B1FE0398F7E706A893
:102EB000FFF72AFF0698F2E7316811F0405103D07E
:102EC000B94203D11846EAE71046E8E76145E6D182
:102ED0002046E4E72846E2E7C029FBD04945DED199
:102EE000EAE7D9F8001001F46001B1F5800FDED0F7
:102EF00005DC0029CFD0B1F5001FD0D1D2E7B1F564
:102F0000C00FE7D0B1F5000FC9D1D5E7D9F800104F
:102F100001F0E061B1F1007FC9D005DC0029BAD031
:102F2000B1F1807FBBD1BDE7B1F1407FD2D0B1F12B
:102F3000806FB4D1C0E7B1F5405FCBD0B1F5804F21
:102F4000BAD0ACE7504402580090D00340787D01DD
:102F50000080BB002DE9F84F0446006800252E468E
:102F6000010104F12400FE4FDFF8F88300901DD525
:102F7000606E50B1B0F5801F0CD0B0F5001F0ED0C0
:102F8000B0F5401F1DD001250FE0386840F4003037
:102F9000386016E00221201D02F0BAFC03E0009820
:102FA000022102F02DFD05000BD02E462088C00521
:102FB00023D5606D05281ED2DFE800F00C11161B2A
:102FC0001B00D8F80010626E21F440111143C8F8BC
:102FD0000010EBE7386840F40030386009E0002169
:102FE000201D02F095FC03E00098002102F008FD8E
:102FF00005466DB100E001252E432088800528D5C7
:10300000A06D80281ED00CDC90B140280ED114E0B9
:10301000D8F80010626D21F007011143C8F80010C4
:10302000EBE7C02813D0B0F5807F10D001250FE06A
:10303000386840F40030386009E00021201D02F0BB
:1030400067FC03E00098002102F0DAFC054685B138
:103050002E432088DFF8109340052CD5D4F8A40027
:10306000B0F5800F20D00DDCA0B1B0F5001F0FD15E
:1030700015E0D8F80010A26D21F4E0711143C8F8F2
:103080000010E6E7B0F5C00F13D0B0F5000F10D078
:1030900001250FE0386840F40030386009E0002175
:1030A000201D02F035FC03E00098002102F0A8FC8E
:1030B000054675B12E43208800052DD5D4F8A8000B
:1030C000B0F1007F21D00EDCA8B1B0F1807F10D12B
:1030D00016E0D9F80010D4F8A42021F460011143BF
:1030E000C9F80010E7E7B0F1407F13D0B0F1806F6E
:1030F00010D001250FE0386840F40030386009E056
:103100000021201D02F004FC03E00098002102F0E1
:1031100077FC05466DB12E43206880011FD5A06C59
:10312000D8B110280FD0202812D0302815D0012572
:1031300014E0D9F80010D4F8A82021F0E061114380
:10314000C9F80010E8E7386840F40030386004E05F
:103150000221201D02F0DCFB05466DB12E432088C4
:10316000C0042BD5E06DB0F5005F20D00DDCA0B120
:10317000B0F5805F0FD115E07A48001F0168A26C9E
:1031800021F0300111430160E9E7B0F5405F13D051
:10319000B0F5804F10D001250FE0386840F40030C2
:1031A000386009E00021201D02F0B2FB03E0009826
:1031B000002102F025FC054685B12E4320888004BD
:1031C00029D5206EB0F5403F23D010DC08B3B0F510
:1031D000803F14D0B0F5003F0FD115E0D8F80010B3
:1031E000E26D21F4E0411143C8F80010E6E7B0F5C4
:1031F000802F0ED0B0F5A02F0BD001250AE00121C1
:10320000201D02F085FB03E00098012102F0F8FB8D
:1032100005468DB12E43208840042AD5D4F8AC0051
:10322000B0F1405F23D010DC08B3B0F1805F14D060
:10323000B0F1005F0FD115E0D8F80010226E21F434
:10324000E0211143C8F80010E5E7B0F1804F0ED03F
:10325000B0F1A04F0BD001250AE00121201D02F0A2
:1032600057FB03E00098012102F0CAFB05466DB14F
:103270002E43208800041FD5E06ED8B1B0F1805FE6
:103280000ED0B0F1005F10D0012514E0D9F8001085
:10329000D4F8AC2021F0E0411143C9F80010E8E770
:1032A000386840F40030386004E00121201D02F04D
:1032B0002FFB05466DB12E432068C0011ED5606C02
:1032C000D0B101280ED0022811D0032814D0012536
:1032D00013E0D8F80010E26E21F040511143C8F815
:1032E0000010E9E7386840F40030386004E002215B
:1032F000201D02F00DFB054675B12E432068DFF856
:103300006CB040025AD51A48016841F480710160DE
:10331000FEF7EAF882460EE01248001F0168626C70
:1033200021F0030111430160E8E7FEF7DDF8A0EBAF
:103330000A0064283AD80E480068C005F5D5B5BB28
:10334000094818300068B4F8B01000F4407001F477
:103350004071884219D00448183001680AE0000022
:103360002C44025850440258584402581044025801
:1033700000480258026821F4407142F48032026031
:10338000026822F4803202600160D4F8B000B0F527
:10339000807F22D1FEF7A8F8824609E0FEF7A4F864
:1033A000A0EB0A0141F28830814201D9032504E0F3
:1033B000FE4800688007F1D57DB12E432078DFF804
:1033C000F0A3C0073CD0A06F182837D025DC78B315
:1033D000082828D0102824D12BE0D4F8B000C0F35E
:1033E000012103290ED0DBF8001021F47C51CBF829
:1033F0000010EE480168B4F8B020C2F30B0211438C
:103400000160DBE7DBF80020EA4B22F47C5203EAA0
:1034100010100243CBF80020EBE720280ED028281C
:103420000CD001250BE00121201D02F071FA04E00F
:1034300004E00098012102F0E3FA05465DB12E4355
:10344000207880071ED5606F062819D2DFE800F0CB
:10345000160C11161616DAF80010A26F21F03801BA
:103460001143CAF80010EBE70121201D02F050FAC9
:1034700003E00098012102F0C3FA054675B100E0AF
:1034800001252E43207840071FD5D4F89000062848
:1034900019D2DFE800F0160C11161616DAF8001033
:1034A000626F21F007011143CAF80010EAE7012119
:1034B000201D02F02DFA03E00098012102F0A0FA8D
:1034C00005469DB100E001252E43207880062BD5CE
:1034D000D4F88C00B0F1405F24D011DC10B3B0F10F
:1034E000805F15D0B0F1005F10D116E0D9F8001060
:1034F000D4F8902021F007011143C9F80010E4E747
:10350000B0F1804F0ED0B0F1A04F0BD001250AE0F2
:103510000021201D02F0FCF903E00098022102F0D6
:103520006FFA05468DB12E43207840062BD5D4F88E
:103530009800B0F5406F24D011DC10B3B0F5806F67
:1035400015D0B0F5006F10D116E0DAF80010D4F8FD
:103550008C2021F0E0411143CAF80010E4E7B0F5F7
:10356000805F0ED0B0F5A05F0BD001250AE00021EE
:10357000201D02F0CDF903E00098022102F040FA8C
:1035800005468DB12E43207800062BD5D4F89C003B
:10359000B0F5C04F24D011DC10B3B0F5005F15D0EA
:1035A000B0F5804F10D116E0D9F80010D4F898206B
:1035B00021F4E0511143C9F80010E4E7B0F5004FE1
:1035C0000ED0B0F5204F0BD001250AE00021201DC0
:1035D00002F09EF903E00098022102F011FA05467C
:1035E00065B32E43207800070BD5D4F88000B0F5E2
:1035F000805F2DD0DAF8002022F440520243CAF84E
:1036000000202078C0060BD5D4F89400B0F5807F58
:1036100024D0D9F8002022F440720243C9F80020D7
:10362000206800032CD5D4F8A000E8B1B0F5803FA5
:103630001FD0B0F5003F21D0012520E0D9F80010BF
:10364000D4F89C2021F460411143C9F80010C9E767
:103650000098022102F0D4F90643D2E70098022133
:1036600002F0CEF90643DBE70021201D02F050F9FD
:1036700003E00098022102F0C3F9054685B12E430C
:103680002068400322D5D4F88400B0F5801F11D003
:10369000B0F5001F13D0B0F5401F15D0012514E080
:1036A000D9F80010D4F8A02021F440311143C9F812
:1036B0000010E5E7386840F40030386004E0009816
:1036C000012102F09DF9054655B12E432068C00343
:1036D0001CD5E06C70B1B0F5803F10D0012514E02E
:1036E000DAF80010D4F8842021F440111143CAF80C
:1036F0000010EBE7386840F40030386004E0022145
:10370000201D02F005F90546C5B12E432068800052
:1037100004D50098022102F073F906432068800363
:103720001BD5E06FB8B1B0F5807F10D0B0F5007F49
:1037300011D0B0F5407F0ED001250DE01C480838AF
:103740000168E26C21F4803111430160DEE73868E2
:1037500040F40030386045B32E432068C00207D5DE
:10376000D8F80000226F20F000401043C8F8000095
:103770002068C00008D5DBF80010D4F8B42021F48C
:1037800080411143CBF800102068800207D5D8F89B
:103790000010A26E21F080711143C8F8001020685B
:1037A000400014D5DBF8001006E01EE0704402581B
:1037B00054440258CFFFFF0021F40041CBF8001021
:1037C000DBF80010D4F8B8201143CBF800102068C3
:1037D000002806DA0A480168226D21F040511143A1
:1037E00001605EB10120BDE8F88FDAF80010E26FE9
:1037F00021F440711143CAF80010AEE70020F2E74F
:103800004C44025870B504001AD0022084F88D0090
:10381000206800250561681E216888611B492068B1
:103820001B4A1C4B884206D0904204D0984202D0DA
:10383000194EB04216D1884204D11448001F0DE041
:10384000012070BD904202D11148001F06E098424D
:1038500002D11048001F01E00F48001F416C21F009
:1038600001014164204602F043F92068416841F0BB
:1038700008014160204600F073F9C4F8905084F8C4
:103880008D50002084F88C5070BD00000458014019
:10389000045C014004600140045400582DE9F05FCD
:1038A0004FF0000704003E4617D094F83400A64AB3
:1038B000DFF898820128DFF8989211D120689042B1
:1038C00006D0404504D0484502D0A249884204D1E0
:1038D0006068012801D1206C10B10120BDE8F09F83
:1038E00020689346584503D097492031884202D139
:1038F000954D2D1F13E0404503D094492031884257
:1039000002D1924D2D1F0AE0484503D09049203145
:10391000884202D18E4D2D1F01E08E4D2D1F94F84F
:103920008D0028B9002084F88C00204600F01AF998
:10393000022084F88D00204602F0DAF8686C20F04E
:103940000100686494F8340001280ED13022D4E9D3
:103950000E0192FAA2F2401EB2FA82F290400143A6
:103960006964686C40F001006864E06838B101285F
:1039700002D0022803D101E0102700E02027A06830
:103980004FF4006A70B1012804D0022805D0032842
:1039900008D104E04FF4806604E0564602E047F0A8
:1039A000010756462F604FF40075E069F0B32168B7
:1039B0000020594503D0644A2032914203D14FF48C
:1039C0008070FFF71FFA2168414503D05F4A20321B
:1039D000914202D12846FFF715FA2168494503D0E4
:1039E0005B4A2032914202D12846FFF70BFA59492F
:1039F00022688A4203D14FF48060FFF703FA554AE8
:103A000021682032914202D15046FFF7FBF96169EB
:103A1000B1F5002F7ED0616AB1F1806F7BD00121BA
:103A200000EB80004200E069484300E00EE0000245
:103A3000B2FBF0F00A22B0FBF2F3B0FBF2F121622C
:103A400002FB1300082801D9491C21626068E8B311
:103A5000022874D0E06C012800D00025206801689D
:103A60003D4A11400160216C60680843D4E911129D
:103A700011430843A16A284330430843216908439E
:103A800061690843218C40EA0151606A0143206862
:103A9000026811430160206841684EF20F029143B1
:103AA000416020684168A2691143D4E90B231A439D
:103AB0001143416020688168284A11408160216E6D
:103AC000A06D226D0143E06D521E00E037E010430F
:103AD0000143606D6FF0FF0202EB0020014320689C
:103AE0008368194381602068C1684FF22003194040
:103AF000C160D4E919100143E06E02EB0020B4F874
:103B0000702040EA024001432068C2681143C1604E
:103B1000002001E008E010E0C4F89000012184F8E2
:103B20008D1084F88C00D9E6226D00EB8000E169ED
:103B300051434000B0FBF1F07CE7022170E7E06CFC
:103B400001288AD08AE7000004580140045C014043
:103B5000046001400454005810C005FC0080F8FFC8
:103B600070470000124800B587B0016841F4800139
:103B70000160006800F4800005900D48103801686D
:103B800041F0100101600068694600F010000590E6
:103B90007C200090022001900120029003200390DD
:103BA000062004900348FDF7A4FC07B000BD000008
:103BB000F04402580010025870B504000D4603D0BE
:103BC00094F82C0010B107E0012070BD002084F8AB
:103BD0002D00204600F018F8022084F82C00206800
:103BE000211DFDF7CBFED4E900022946FDF706FFB3
:103BF0000448016841F000410160012084F82C0074
:103C0000002070BD00400052444800B587B00168F4
:103C100041F002010160006800F0020005903F4899
:103C20002038016841F480510160006800F4805040
:103C300005903A481438016841F0040101600168B8
:103C400001F004010591016841F00801016001687B
:103C500001F008010591016841F01001016001685F
:103C600001F010010591016841F020010160016837
:103C700001F020010591016841F0400101600168F7
:103C800001F040010591016841F080010160016887
:103C900001F080010591016841F4807101600068C4
:103CA000694600F4807005900D200090022001907C
:103CB00001200290032003900C2004901848FDF787
:103CC00018FC4CF20370009016486946FDF711FC91
:103CD0004FF68370009014486946FDF70AFC4FF6D2
:103CE0003F00009011486946FDF703FC48F2371089
:103CF00000900F486946FDF7FCFB4FF47F400090B1
:103D00000C486946FDF7F5FB40F2FF6000900A4859
:103D10006946FDF7EEFB07B000BD0000F444025811
:103D200000080258000C02580010025800140258F3
:103D300000180258001C02580020025810B5044612
:103D400090F82C00022809D0022084F82C0020686A
:103D5000FDF73CFE012084F82C00002010BD70B55A
:103D6000044690F82C000D4602280CD0022084F85E
:103D70002C002068FDF730FE2868022804D00120BE
:103D800084F82C00002070BD0520F9E72DE9F05FD4
:103D900004004FF000053DD0DFF8C4812068714E6B
:103DA000714F4045A36A06D0B04204D0B84202D059
:103DB000E1680F292ED8E26B4FF0010B0BEB521C80
:103DC000E26802F10801C908404501FB0CF105D089
:103DD000B04203D0B84201D008291BD8404503D0D7
:103DE000B04201D0B84201D1102913D84FF4800954
:103DF0004B4512D1404507D0B04205D0B84203D060
:103E0000206BB0F5702F05D8256B05B91504B2EB02
:103E1000154F02D90120BDE8F09F94F881004FF0C2
:103E2000000A20B9204684F880A000F09FF8022004
:103E300084F881002068016821F001010160A06917
:103E4000B0F1806F09D16068484506D1A06B20B9F8
:103E50002068016841F480510160A16AE06908436B
:103E6000E16B29430843E168084321688860616A7F
:103E7000606BA2690843A16B1143084321690843A1
:103E800061690843216A084361680843E16C08439B
:103E9000A1680843A16C0843A16D08432168C8606C
:103EA000A06A484529D1206C01282068016827D0E4
:103EB00021F400410160606C01282068016822D073
:103EC00021F4804101602068404506D0B04204D012
:103ED000B84202D0B5F5702F18D0404503D0B0429B
:103EE00001D0B84202D1B5F5F81F0FD0016821F416
:103EF000005101602168E06A0864606850B119E00F
:103F000041F40041D6E741F48041DBE7016841F428
:103F10000051EEE7A06A30B92068816821F4C051F1
:103F200041F4006181602068816821F4C06141F43E
:103F3000806181602068016D21F001010165606888
:103F4000400206D52068C168626D21F0004111432E
:103F5000C160C4F884A084F881B000205BE7000051
:103F60000030014000380040003C0040164800B5D9
:103F7000B5B0016841F002010160006800F0020084
:103F8000349011480830016841F4804101600068B4
:103F900000F4804034904FF480500090002017903F
:103FA0006846FEF7D7FF4FF460402F900220309014
:103FB00001203190032032900520339003482FA92F
:103FC000FDF797FA35B000BDE044025800040258EE
:103FD0002DE9F84F044690F880001F4692460A9D4E
:103FE00001288B4613D04FF0010984F88090FDF72B
:103FF0007BFA94F8812006460020012A4FF48001C4
:104000000ED062688A4209D1A2683AB902E0022061
:10401000BDE8F88F94F88120042A01D0022136E00F
