:020000040800F2
:100000006895072459030008E93D0090C33B009020
:10001000650300082B150090534900900000000074
:100020000000000000000000000000002B410090D4
:10003000FF16009000000000EB3D00902D41009065
:1000400073030008730300087303000873030008B8
:1000500073030008730300087303000873030008A8
:100060007303000873030008730300087303000898
:100070007303000873030008730300087303000888
:100080002D15009073030008730300087303000824
:100090007303000873030008730300087303000868
:1000A0007303000873030008730300087303000858
:1000B00073030008314100907303000873030008C4
:1000C0007303000873030008730300087303000838
:1000D00073030008A11200087303000873030008EB
:1000E0007303000873030008000000007303000896
:1000F0007303000873030008730300087303000808
:1001000073030008730300087303000873030008F7
:1001100073030008730300083D4100907303000857
:1001200073030008730300087303000873030008D7
:1001300073030008730300087303000873030008C7
:1001400000000000000000000000000000000000AF
:1001500073030008730300087303000873030008A7
:100160007303000873030008730300087303000897
:100170007303000873030008730300087303000887
:100180007303000873030008730300087303000877
:100190007303000873030008730300087303000867
:1001A0007303000873030008730300087303000857
:1001B0007303000873030008730300087303000847
:1001C0007303000873030008730300087303000837
:1001D0007303000873030008730300087303000827
:1001E0007303000873030008730300087303000817
:1001F0007303000873030008730300087303000807
:1002000073030008730300087303000873030008F6
:1002100073030008730300087303000873030008E6
:1002200073030008C53B0090853D0090000000006E
:100230007303000873030008000000007303000844
:1002400073030008730300087303000873030008B6
:1002500073030008730300087303000873030008A6
:100260007303000873030008730300087303000896
:100270007303000873030008730300080000000004
:100280007303000800000000730300080000000072
:10029000000000007303000800F002F800F044F8CA
:1002A0000AA090E8000C82448344AAF10107DA45D1
:1002B00001D100F039F8AFF2090EBAE80F0013F0DF
:1002C000010F18BFFB1A43F0010318472C1600005A
:1002D0004C160000103A24BF78C878C1FAD85207EB
:1002E00024BF30C830C144BF04680C6070470000B0
:1002F0000023002400250026103A28BF78C1FBD82F
:10030000520728BF30C148BF0B6070471FB501F0CE
:10031000E5FA00F0BBF804000020002101F0C8FA63
:10032000E0601FBD10B510BD00F0B8F81146FFF732
:10033000EDFF01F025F800F0D6F803B4FFF7F2FF67
:1003400003BC00F0DFFF000030BF72B6704762B63A
:10035000704780F30888704709488047094800477C
:10036000FEE7FEE7FEE7FEE7FEE7FEE7FEE7FEE765
:10037000FEE7FEE704480549054A064B70470000C2
:100380001D1200089902000868890724689507244F
:10039000688B0724688B072453EA020C00F06980FD
:1003A0002DE9F04B4FF00006002B1FBFB3FA83F589
:1003B00003FA05F424FA05F65E4012BF1643B2FABA
:1003C00082F502FA05F4C5F120051EBF22FA05FCEC
:1003D00044EA0C04203556EA044C4FEA144418BF92
:1003E000641C4FF000084FF00009904271EB030CC1
:1003F00039D3002919BFB1FA81F701FA07F6B0FA2B
:1004000080F700FA07F6C7F120071EBF20FA07FCA5
:1004100046EA0C062037B6FBF4FCA7EB0507103FB5
:1004200007F01F0BCBF120060CFA0BFB2CFA06F69B
:1004300044BFB3460026202FA4BF5E464FF0000BFA
:100440005BEA060C08BF4FF0010B19EB0B09ABFB85
:10045000027C48EB0608C01B06FB02CC0BFB03CC5E
:1004600071EB0C01C1E70B46024641464846BDE828
:10047000F08B13B54FF000004FF00001AFF3008098
:10048000BDE81C4070477047704770470048704790
:100490002489072400487047048907247546FFF71C
:1004A000F9FFAE4605006946534620F00700854631
:1004B00018B020B5FFF75EFFBDE820404FF0000602
:1004C0004FF000074FF000084FF0000B21F007013C
:1004D000AC46ACE8C009ACE8C009ACE8C009ACE87F
:1004E000C0098D46704710B50446AFF30080204622
:1004F000BDE81040FFF721BF41F6656CC9F2000C62
:10050000604743F6311CC9F2000C604743F6231CD8
:10051000C9F2000C604743F61B3CC9F2000C60476F
:1005200048F27D1CC9F2000C604747F63D5CC9F2F9
:10053000000C60474AF2710CC9F2000C604747F6A4
:10054000717CC9F2000C60474AF6195CC9F2000CD4
:10055000604745F60D6CC9F2000C604745F6D35C68
:10056000C9F2000C604745F6F56CC9F2000C604713
:1005700048F6896CC9F2000C604745F6617CC9F207
:10058000000C604740F2650CC9F2000C604746F26F
:10059000F12CC9F2000C604748F28D0CC9F2000C36
:1005A000604747F6657CC9F2000C604747F26D1C56
:1005B000C9F2000C604747F6A56CC9F2000C604711
:1005C00047F6C56CC9F2000C60474AF2F91CC9F243
:1005D000000C604747F6BD5CC9F2000C60474AF268
:1005E000815CC9F2000C60474AF2616CC9F2000CF0
:1005F000604743F6B12CC9F2000C604740F22D5C15
:10060000C9F2000C604700000248016841F0010196
:1006100001607047200400582DE9F84F6C4C00220F
:100620004FF0B04A4FF0010B4FF0030E4FF00F099F
:100630000B680BFA02F73B40BB4270D14D68022DAC
:1006400001D0122D12D1D50800EB850CDCF820600A
:100650005507ED0E09FA05F826EA0806D1F81080CC
:1006600008FA05F848EA0608CCF82080D0F800809F
:10067000560091F804C00EFA06F50CF0030C28EAB7
:1006800005080CFA06FC4CEA080CC0F800C0D1F8CA
:1006900004C0BCF1010F08D0BCF1020F05D0BCF1C1
:1006A000110F02D0BCF1120F16D1D0F808C0D1F84A
:1006B0000C802CEA050C08FA06F848EA0C08C0F889
:1006C0000880D0F804C02CEA070C0F79C7F3001794
:1006D000974047EA0C074760C768AF438D68B5404D
:1006E0003D43C5604D68ED006BD53A4D2E6846F030
:1006F00002062E602D6822F0030606F1B04605F0D2
:1007000002050095D6F808C495072F0F09FA07F5DA
:100710002CEA050C304DA84202D100252EE050E015
:100720002E4DA84201D1012528E02D4DA84201D12E
:10073000022523E02B4DA84201D103251EE02A4DBE
:10074000A84201D1042519E0284DA84201D1052570
:1007500014E0274DA84201D106250FE0254DA842FF
:1007600001D107250AE0244DA84201D1082505E062
:10077000224DA84201D1092500E00A25BD4045EAE5
:100780000C05C6F8085425684E689D43F60300D54D
:100790001D43256065684E689D43B60300D51D4323
:1007A0006560DAF8005056464F689D43FF0200D559
:1007B0001D43356075684F689D43BF0200D51D43DA
:1007C0007560521C102AFFF433AFBDE8F88F0000AB
:1007D00080000058F44402580000025800040258F7
:1007E00000080258000C0258001002580014025869
:1007F00000180258001C0258002002580024025819
:100800000069084000D0012070470AB10183704799
:1008100041837047014880687047000054000024FD
:1008200002488168027811448160704754000024B6
:10083000052010B500F058F80F2000F007F808B1B7
:10084000012010BD00F022F8002010BD70B50D4D44
:1008500004464FF47A712878B1FBF0F00A49096830
:10086000B1FBF0F000F05AFC48B9102C07D200227E
:100870002146501E00F018F800206C6070BD012069
:1008800070BD0000540000240000002470470028C0
:1008900009DB012100F01F0291404009800000F1B6
:1008A000E020C0F8001170470E4BF0B41B68C3F392
:1008B0000223C3F10704042C00D904241D1D072DB5
:1008C00001D2002300E0DB1E012606FA04F56D1EAE
:1008D0000D409D409E40761E164045EA0601F0BC44
:1008E00000F000BD0CED00E0064A00F007011068C2
:1008F0004FF6FF03184040EA012003490843106007
:10090000704700000CED00E00000FA052DE9F0470B
:10091000DFF8BC9104460E46D9F8000000F007004D
:10092000B0420CD2D9F8001021F007013143C9F8C8
:100930000010D9F8000000F00700B0427ED1207806
:10094000DFF89081800707D5D8F80010E26821F021
:100950000F011143C8F800102078C00762D0D8F802
:100960000010A26821F470611143C8F800105949C1
:100970006068183902281CD003281DD00968012896
:100980001DD04907002960DA524F083F396821F02D
:10099000070101433960FFF73DFF0546606841F2FA
:1009A0008831022813D003281ED001288A4627D078
:1009B00034E009688903E5E709688901E2E7C905C8
:1009C000E0E7FFF727FF411B514501D923E08A46A5
:1009D0003868C0F3C2000228F3D123E0FFF71AFF02
:1009E000411B514501D916E08A463868C0F3C20060
:1009F0000328F3D116E0FFF70DFF411B51450AD83C
:100A00003868C0F3C2000128F5D10BE0FFF702FF00
:100A1000411B514502D90320BDE8F087386810F02A
:100A2000380FF3D1D9F80010484601F00701B14260
:100A30000DD9016821F00701314300E005E00160B4
:100A4000006800F00700B04201D00120E4E7207800
:100A5000400707D5D8F80010226921F07001114332
:100A6000C8F80010207801071B4805D501686269A5
:100A700021F07001114301602178C90605D5016894
:100A8000A26921F4E061114301602078800607D556
:100A90001149091D0868E26920F0700010430860E0
:100AA00000F066F8D8F800104FF4807292FAA2F2C3
:100AB00001F47061B2FA82F2D140084A515CC84038
:100AC000074908600F20FFF7C1FE0020A4E70000DF
:100AD00000200052184402581C440258E61800082E
:100AE0000000002410B5FFF707FD0849096801223E
:100AF00092FAA2F201F00F01B2FA82F2D140044A56
:100B0000515CC8400349086010BD000018440258F9
:100B1000E61800080400002410B5FFF7E3FF0749BA
:100B20000968102292FAA2F201F07001B2FA82F280
:100B3000D140034A515CC84010BD00001C4402581B
:100B4000E618000810B5FFF7CDFF074909684FF414
:100B5000807292FAA2F201F4E061B2FA82F2D1401C
:100B6000024A515CC84010BD1C440258E6180008F7
:100B70003548F0B50068364D10F03801334809D0DB
:100B80000411082904D0334E10290BD018290BD09A
:100B90002046F0BD29688906FBD52968C1F3C1014B
:100BA000C840F0BD3046F0BD274918310A680968D1
:100BB00012F00302284BC1F305111B68274F03F005
:100BC00001033F68DFED260AB7EE001AC7F3CC0732
:100BD00017FB03F300EE103A224BB8EE400A06D0A2
:100BE000012A01D0022A2BD0B4FBF1F008E02A68D8
:100BF000920603D52A68C2F3C102D040B0FBF1F0DF
:100C000001EE900A1868B8EE612AC0F3080001EE00
:100C1000900A1868F8EE611A40EE201A31EE810A47
:100C200022EE000AC0F34620401C00EE900AF8EEC7
:100C3000600A80EE201ABCEEC10A10EE100AF0BD68
:100C4000B6FBF1F0DCE70000104402580090D0033E
:100C50000044025840787D012C4402583444025824
:100C600000000039304402582DE9F05F0446007856
:100C7000DFF8FC8341F28839DFF8F8A3FE4DC007A6
:100C80004ED0D8F800104046C1F3C20102291AD054
:100C90000068C0F3C200032805D1DAF8000000F0B4
:100CA000030002280FD06068B0F5803F12D010B169
:100CB000B0F5A02F19D0286820F48030286028686B
:100CC00020F4802009E02868800329D56068002886
:100CD00074D025E0286840F480302860606890B1C6
:100CE000FFF798FD06464F4609E0286840F480204B
:100CF0002860EFE7FFF78EFD801BB8427DD828689B
:100D00008003F7D50CE0FFF785FD06464F4604E06B
:100D1000FFF780FD801BB842F0D828688003F7D425
:100D20002078D64F80075AD5D8F8001040464FF4A7
:100D30007C3B11F0380F13D00068C0F3C2000328C9
:100D400003D1DAF8000080070AD0E068A8B3296868
:100D500021F0190101432960FFF75CFD06461DE003
:100D60002868400702D5E0680028B1D02868E1680B
:100D700020F0190008432860FFF74CFD064604E008
:100D8000FFF748FD801B0228B8D828684007F7D530
:100D900007E0FFF73FFD801B0228AFD82868400717
:100DA000F7D538689BFAABF220F47C312069B2FAAF
:100DB00082F290400143396011E000E0AEE0286823
:100DC00020F001002860FFF725FD064604E0FFF74C
:100DD00021FD801B022891D828684007F7D420788D
:100DE000C00655D5D8F8001040464FF0F84BC1F377
:100DF000C201012917D0006800E0EDE0C0F3C20095
:100E0000032805D1DAF8000000F0030001280AD019
:100E1000E069002828682CD040F080002860FFF7A7
:100E2000F9FC064616E02868C00502D5E06980286E
:100E300074D138689BFAABF220F0F841206AB2FA1C
:100E400082F290400143396022E0FFF7E3FC801B0F
:100E5000022899D82868C005F7D538689BFAABF204
:100E6000216AB2FA82F220F0F840914008433860DB
:100E70000EE020F080002860FFF7CCFC064604E07E
:100E8000FFF7C8FC801B022887D82868C005F7D464
:100E90002078000724D5774F60694C3700283868E0
:100EA0000FD040F001003860FFF7B4FC064604E0C4
:100EB000FFF7B0FC801B02288DD838688007F7D573
:100EC0000EE020F001003860FFF7A4FC064604E0C5
:100ED000FFF7A0FC801B02287ED838688007F7D473
:100EE0002078800623D5A069002828680FD040F418
:100EF00080502860FFF78EFC064604E0FFF78AFC6E
:100F0000801B022868D828688004F7D50FE020F4F9
:100F100080502860FFF77EFC064605E0D6E0FFF72C
:100F200079FC801B022857D828688004F7D42078E1
:100F3000400744D5524F386840F480703860FFF75E
:100F400069FC064604E0FFF765FC801B642843D873
:100F50003868C005F7D5474FA068483701280AD040
:100F600008B1052811D0386820F0010038603868D1
:100F700020F0040002E0386840F001003860A0680A
:100F800088B1FFF747FC064609E0386840F00400E6
:100F90003860F0E7FFF73EFC811B49451CD83868F4
:100FA0008007F7D50BE0FFF735FC064604E0FFF7B6
:100FB00031FC811B49450FD838688007F7D4606A37
:100FC000F0B3D8F80010C1F3C20103297ED0022883
:100FD000286820F0807000E079E0286003D0FFF7F7
:100FE00019FC044687E0FFF715FC064604E0FFF70E
:100FF00011FC801B02287BD828688001F7D4DAF81E
:10100000001040F2F3329143E26A41EA0211A26A0F
:101010001143CAF8001094F834004FF4FE02218EF8
:101020004002491EA0F5007080B2C1F308010843D8
:10103000218F491E02EA0141084394F83C1000E068
:101040005CE0491E120202EA0161084309490831C5
:1010500008600B1D19684FF6F872A06C914392FA64
:10106000A2F2B2FA82F2904001431960014809E00D
:1010700010440258284402580044025804440258BC
:1010800000480258001D0168226C21F00C01114338
:1010900001600168626C21F0020111430160016886
:1010A00041F480310160016841F400310160016860
:1010B00041F480210160016841F00101016028686C
:1010C00040F080702860FFF7A5FB01E018E00FE01A
:1010D000044604E0FFF79EFB001B022808D828689E
:1010E0008001F7D50AE0FFF795FB001B022802D923
:1010F0000320BDE8F09F28688001F4D40020F8E7C1
:101100000120F6E74FF0E0210428086903D020F021
:1011100004000861704740F00400FAE7401EB0F197
:10112000807F10B501D3012010BD4FF0E024606135
:101130000F21601700F0D6F80020A0610720206181
:10114000002010BD10B5006886B01B49884230D120
:101150001A48016841F001010160006800F00100D7
:10116000059016481030016841F0100101600068D8
:101170000121134C00F0100005904FF40070009016
:101180000220CDE901010390072069460490204622
:10119000FFF742FA4FF48061204600916946FFF75D
:1011A0003BFA2520FFF773FB032225201146FFF7AA
:1011B0007BFB06B010BD000000100140E044025867
:1011C0000000025830B50068114988420CD1114A1C
:1011D0005088010408D411464FF0000344040978F4
:1011E00006D50A2901D0538030BD40F400400DE0FF
:1011F0000D2909D0084DC0F30D04401C80B2C7284A
:1012000029555080EFD830BD40F48040508030BD2B
:10121000001001404C0000246C1600241C4801689A
:1012200041F4700101601B49086840F0010008604A
:10123000184A0020103210600A68174B1A400A60E2
:10124000144A18321060121D1060121D1060114AED
:1012500028321060121D1060121D1060121D1060E7
:10126000121D1060121D1060121D1060121D106002
:101270000A6822F480220A60064960310860012071
:101280000649C1F80801C006014980390860704765
:1012900088ED00E0004402587FEDF6EA008000513E
:1012A00070B50D4D00240D48FFF72BF902E0641CCA
:1012B000AC4204D80948FFF729F92028F7D10024C7
:1012C00002E0641CAC4206D8054901220348FFF73E
:1012D00022F90028F5D170BDFFFF0100341700246A
:1012E0004C0000240907090E002804DB00F1E0206F
:1012F00080F80014704700F00F0000F1E02080F843
:10130000141D70477047000010B504460420FFF715
:10131000F9FE0148046010BD4800002470B50024A7
:1013200005464FF47A7603E0304600F005F8641C79
:10133000AC42F9D370BD000070B54FF0E02500213C
:101340006C69094AAB6912685043AA699A42FCD099
:1013500002D2A3EB020302E0A4EB020633441944D9
:1013600013468142F1D370BD480000240349CA6985
:101370005206FCD5C2B20A85704700000010014039
:101380000EB500F0DDF9FFF753FA04230222052120
:10139000A02000F019FA4FF4C8773846FFF7B4FFE1
:1013A0004FF4E13000F068FAFFF7BAF8FFF7BDF844
:1013B000FFF7C0F8FFF7C3F8FFF7C6F8FFF7C9F863
:1013C0000A20FFF7CBF80420FFF7CDF8FFF7D0F89D
:1013D000FFF7D3F853A0FFF7D5F8594C012259A1D4
:1013E0002068FFF7D4F86068012257A1FFF7CFF813
:1013F00056A0FFF7C7F85C4E10244FF478494FF61B
:10140000FF75C6F8009015E058A01023C822CDE95A
:10141000004032211E20FFF7BFF8C820FFF77EFFF3
:1014200042230095F02232211E20FFF7BAF8C8208F
:10143000FFF774FFFFF7BAF80028E5D10120FFF7A6
:10144000BAF81F2030604C484FF4967A5A2140F287
:101450002913524600902820FFF7B2F820203A4680
:101460000024346045A10346CDE90010B4211046A4
:101470000294FFF7AAF84FF018083A4645A14346F0
:101480004FF4EF700294CDE90018E621FFF79DF8C4
:1014900046A13A46CDE90018182302944FF4827110
:1014A0004FF42A70FFF791F840F2DC50FFF736FF57
:1014B0004FF4FA79AB465746454640F23B1A20E0D6
:1014C0004FF4784030603BA03A46CDE900054FF438
:1014D000C8785046182341460294FFF776F84846EC
:1014E000FFF71CFF33A0C6F800B0CDE900051823B4
:1014F0003A46414650460294FFF767F84846FFF7E0
:101500000DFF0020FFF766F80428D9D144F61F61CB
:101510004810FFF764F84846FFF700FFFFF764F84C
:10152000FCE70000496E69742053657175656E6350
:10153000652053756363657373210D0A0000000015
:10154000C0170024303A0000313A00004D6F756E2C
:10155000742053657175656E6365205375636365AB
:101560007373210D0A00000020000024466F6E7482
:10157000204572726F72210040B00090CEDEC8CB61
:10158000BBFAC8ABCFA2CDB6D3B0D5B9CABECFB522
:10159000CDB30000B7C9D0D0C6F7BFD8D6C6D3EBFD
:1015A000D0C5CFA2B9A4B3CC31B0E000D1EEC3CE48
:1015B000D0F90000B3A4B0B4574B5550BCFCBFAA3F
:1015C000CABCCDB6D3B0000054482DE9F041524C0E
:1015D00086B0016841F002010160016841F020011C
:1015E00001604E480C38016841F4804101604020A0
:1015F0000090022001900320DFF824810025694635
:101600000A270497CDE902504046FFF705F8042069
:1016100069460926049600904046FEF7FDFF0496B1
:10162000C020404E694600903046FEF7F5FF4FF46B
:1016300040706946049700903046FEF7EDFF37484A
:101640006438016841F480410160016821F48041FF
:1016500001603148203881688906FCD43249016034
:1016600032494160016841F00101016081688906E9
:10167000FCD44FF49C71416181688907FCD5C16835
:1016800041F00201C16081688906FCD44FF4837186
:10169000416181688907FCD5C16841F00201C160E0
:1016A00081688906FCD42249416105618168490746
:1016B000FCD530212170016841F00401016081688E
:1016C0008907FCD5C16841F00201C16081688906C3
:1016D000FCD481688906FCD4C5611649416116486D
:1016E000016821F480310160134970310A6822F0E9
:1016F00001020A600A1D156082060F4B78331A60DA
:101700001B1D0E4A1A6005220A60016841F48031EF
:10171000016006B0BDE8F08120500052E04402585C
:1017200000040258001402581003000101041600BE
:10173000C0030003EBEF180F24ED00E02D000303BE
:10174000F0B5BFF34F8FBFF36F8F1D4900200860C6
:10175000BFF34F8FBFF36F8F1A4C216841F40031F4
:101760002160BFF34F8FBFF36F8F16497031086050
:10177000BFF34F8F081F006843F6FF75104E1036F9
:10178000C0F34E31C0F3C90305EA4112184642EADC
:1017900080773760401EFAD2491EF5D2BFF34F8FD3
:1017A000206840F480302060BFF34F8FBFF36F8F0D
:1017B00003484C30016841F004010160F0BD0000B5
:1017C00050EF00E014ED00E070B5294C9CB02568A6
:1017D00025F004052560264C00260C34256845F4C8
:1017E00040452560256805F440451B952568AD04F6
:1017F000FCD5012400940CAD03962404019402242A
:101800000994CDE90A410796082485E80D00CDE941
:1018100010466846FFF728FA98B9FFF7D5FE3F2033
:1018200013900320CDE9140640200101CDE91640B4
:10183000CDE9180150201A90022113A8FFF766F88D
:1018400010B101201CB070BD0A48016841F0800150
:1018500001600848F430016841F00201016000684D
:1018600000F002001B90FEF7CFFE0020EAE7000028
:101870000C480258004402580B490A4A10B5C1E905
:10188000002000208860C860086188610C204861E1
:101890000846FEF7AEFEBDE81040044901220248AA
:1018A000FEF739BE00100140341700244C0000241C
:1018B00010B500290AD00878002807D005487844D8
:1018C000FEF79CFE002801D0002010BD024878449D
:1018D00010BD00005A000000520000004FF04070A0
:1018E000E1EE100A7047000000000102030401024B
:1018F000030406070809000034190008000000244A
:10190000C4000000D4020008F8190008C400002434
:10191000A4940700F00200081C000000430000002F
:10192000F8FFFFFF0C0000000E0000000F00000099
:101930002E0000000090D0030090D00300000000B3
:101940000000000000000000000000000000000097
:1019500001000000000000FFFFFFFFFF000000008B
:101960000000000000000000000000000000000077
:10197000000000000000000018EF00000000000060
:101980000000000000000000010000001000000046
:101990000000000000000000000000000000000047
:1019A000000000005D8E00903D8F00900018002424
:1019B00000803EC000000030000000380000002021
:1019C000000000000018072400805EC300C0033040
:1019D00000F0003800E0012000F0000000000000EE
:1019E00000000000000000000000000000000000F7
:0819F0000000000000000000EF
:0200000490006A
:1000000066290BF01B80642900F08880782900F0B5
:10001000C180732900F07D850020704710B54C1019
:1000200084EA530404D54042C1F1000138BF491E9F
:100030001B4204D55242C3F1000338BF5B1E01F0DE
:1000400015FA14F0804F04D04042C1F1000138BFCE
:10005000491E14F0004F04D05242C3F1000338BFD0
:100060005B1E10BD0FB4044910B503AA029800F03E
:1000700055FD10BC5DF814FB5000002470B504461B
:1000800085690068C10601D5302600E02026C0073A
:1000900007D070BDD4E9012130469047206A401C4A
:1000A00020626D1EF6D570BD70B504468569007876
:1000B000C00707D170BDD4E9012120209047206AF4
:1000C000401C20626D1EF6D570BD70B50C4605460D
:1000D000012A05D02878800600D5EA69002302E0CD
:1000E000012305E05B1C934202D2E05C0028F9D1B9
:1000F000A869E618C01AA861286A18442862284628
:10010000FFF7BCFF04E0D5E9012114F8010B90478B
:10011000B442F8D32846FFF7C7FF70BD2DE9F04180
:100120000646002410687529314616A510D0AFF395
:100130000080002802DA404213A507E031688A07F0
:1001400001D512A502E0490704D511A5012401E05B
:10015000AFF3008000210A2206F1240709E0B0FB7A
:10016000F2FCB0FBF2F302FB1C003030785418466E
:10017000491C0028F3D123462A463046BDE8F04109
:1001800000F04DBA000000002D0000002B00000020
:100190002000000070B504460D4621461068AFF3FC
:1001A00000802188090502D50F4A7A4402E00E4AF0
:1001B0007A440E32002104F1240305E000F00F061A
:1001C0000009965D5E54491C0028F7D12078002371
:1001D000000704D5702D02D009B102231132204648
:1001E000BDE8704000F01BBA2A2601002DE9F04757
:1001F0004FF0000A89460446C0F820A02046E16876
:100200008847002876D0252806D0D4E901219047D8
:10021000206A401C2062F1E7E168204600268847FA
:10022000C4F81CA005460027C4F818A02A2D09D040
:10023000284604F0E5FB38B304EB8708303DC8F8E6
:10024000185019E059F8041B204604EB870291610D
:10025000E1688847012F054618D1E069002820DAB7
:1002600026F020061DE0D8F8180000EB800005EB12
:1002700040003038C8F818002046E1688847054635
:1002800004F0BEFB0028EED1012F0AD02E2D08D19C
:100290002046E16888477F1C0546022F46F020066D
:1002A000C4DBA069002803DA404246F00106A061E1
:1002B000F00701D026F010066C2D0AD0682D08D06A
:1002C0004C2D39D06A2D35D0742D35D07A2D33D0C0
:1002D00016E0E1682F4620468847B84205460AD115
:1002E0006C2F27D04FF48060E16806432046884792
:1002F000054605E027E06C2F1AD04FF480700643C6
:100300000DB3A5F14100192802D8203546F4006646
:100310004A462946204626604E46FFF771FE80B1C8
:1003200001280BD0F61D26F0070000F1080965E74B
:100330004020E4E78020D7E70020D5E706F1040954
:100340005CE7284661E7206ABDE8F08740EA0103E0
:10035000024630B59B0710D14FF0013400E008C2CF
:1003600008C91D1B9D4315EAC41FF8D013F0FF01F7
:1003700002F8011B0DD01B0AF8E711F8013B002B16
:1003800002F8013B05D011F8013B002B02F8013BBC
:10039000F3D130BD421E12F8013F002BFBD111F802
:1003A000013B002B02F8013BF9D17047032A40F2D0
:1003B000308010F0030C00F0158011F8013BBCF107
:1003C000020F624498BF11F801CB00F8013B38BF1F
:1003D00011F8013BA2F1040298BF00F801CB38BF2D
:1003E00000F8013B11F0030300F02580083AC0F04B
:1003F000088051F8043B083A51F804CBA0E80810F3
:10040000F5E7121D5CBF51F8043B40F8043BAFF325
:100410000080D20724BF11F8013B11F801CB48BF7F
:1004200011F8012B24BF00F8013B00F801CB48BFB5
:1004300000F8012B704710B5203AC0F00B80B1E8EE
:100440001850203AA0E81850B1E81850A0E8185009
:10045000BFF4F5AF5FEA027C24BFB1E81850A0E812
:10046000185044BF18C918C0BDE810405FEA827C2C
:1004700024BF51F8043B40F8043B08BF7047D20743
:1004800028BF31F8023B48BF11F8012B28BF20F8E4
:10049000023B48BF00F8012B70474FF000020429CF
:1004A000C0F0128010F0030C00F01B80CCF1040CA3
:1004B000BCF1020F18BF00F8012BA8BF20F8022BD7
:1004C000A1EB0C0100F00DB85FEAC17C24BF00F87D
:1004D000012B00F8012B48BF00F8012B70474FF0AB
:1004E000000200B5134694469646203922BFA0E884
:1004F0000C50A0E80C50B1F12001BFF4F7AF090790
:1005000028BFA0E80C5048BF0CC05DF804EB890080
:1005100028BF40F8042B08BF704748BF20F8022BC3
:1005200011F0804F18BF00F8012B70474FF0013CCD
:1005300050F8042B51F8043B9A4215D1A2EB0C035E
:10054000934313EACC130BD150F8042B51F8043B1E
:100550009A4209D1A2EB0C03934313EACC13E7D0E0
:100560004FF00000704700BFD01A01BAB1FA81F114
:1005700001F0180122FA01F0CB40C1F12001DBB2F9
:10058000C0B2C01A2CFA01F3D11A914311EAC31177
:10059000E6D1704730B5B0F10A024FEA900E71F122
:1005A00000034EEA817EB0EB0E0061EB91014FEA51
:1005B000101E4EEA017E10EB0E0041EB11114FEAC6
:1005C000102E4EEA016E10EB0E0041EB11214FEAA6
:1005D000104E4EEA014E10EB0E0041EB1141401857
:1005E00041F100014FEAD00040EA41704FEAD101E9
:1005F00010EB80054FEA810444EA907444EB010457
:100600006D1944EB0404521BA3414FF0000348BF93
:100610000A3200D530BD401C41F1000130BD2DE94A
:10062000F0470D4699469246044600F124080168B9
:10063000880604D5E06921F01001216000E0012066
:10064000A84201DD471B00E00027A1697A1902EBEF
:100650000900081AA0612078C00602D42046FFF7DE
:100660000DFD002608E0D4E901211AF806009047A4
:10067000206A401C761C20624E45F4DB2078C006C0
:100680000AD52046FFF7FAFC06E0D4E90121302024
:100690009047206A401C2062381EA7F10107F4DC55
:1006A00007E0D4E9012118F805009047206A401CB2
:1006B0002062281EA5F10105F3DC2046FFF7F4FCBB
:1006C0002078000602D50220BDE8F0870120FBE774
:1006D00070472DE9FF4F0C461E464FF0FF378BB099
:1006E000D2E90001DDF860800A908A46C1F30A551C
:1006F00005B93D46002108464FF00000BAF1000F51
:1007000000F4400005DA00EB80004FF4400101EAFC
:1007100050004FEA9059B9F1010F00DDB9460A982F
:1007200050EA4A000ED044F61050A5F2FF3545437A
:100730002F14B8F1000F1ED07542291E1EDDC9F11D
:1007400000021CE0B8F1010F4FF0000001D0302191
:1007500003E0F24305E02154401CB042FBDB30468D
:100760000022002121540B99C1F80880C1E9002022
:100770000FB0BDE8F08FBD1B6D1CDEE74A4600DA06
:10078000694206A800F034FA06AB93E8070003AB11
:1007900083E8070050460A9900F0A0FA8DE80700A8
:1007A000A0F500501F3800900398002D0ADD42F29A
:1007B0001F014A460844002303A90390684600F03D
:1007C00009FD09E0A0F500504A461F38002303A99F
:1007D0000390684600F013FD8DE807000004000C4C
:1007E00003D04FF0FF30410800E01046B8F1000F91
:1007F00003D00022009215461EE0751E05D4FFF7B7
:10080000C9FE303262556D1EF9D5B3460122084348
:1008100002D000227F1C04E02078302801D1002281
:100820007F1E002A099784D01DE0112D07DAFFF7FB
:10083000B1FE303262556D1C50EA0102F5D1084319
:1008400002D00098C8B10EE00021681E05E0235CCC
:10085000625C63542254401E491C8142F7DBAB4664
:10086000A81B401E0990002004F80B000B98099A61
:10087000C0F80880C0E9002B7AE711264FF0000885
:1008800057E72DE9F04F88460446D21D22F00701B4
:1008900091B0D1E90001CDE90A0104F099F80246CE
:1008A0000B98C00F01D02D2007E02068810701D5EB
:1008B0002B2002E0202101EAC000032A099001D088
:1008C000072A05DB03464146204600F051F90BE1BB
:1008D0002078800601D5E06900E00620B8F1650FB8
:1008E000814606D0B8F1660F18D0B8F1670F70D105
:1008F00031E00020B9F1110F009001DB112301E07C
:1009000009F101030AAA01A90CA8FFF7E2FEDDE93B
:100910000C70002609F10105834647E001204B4693
:1009200000904FF000470AAA01A90CA8FFF7D1FEDA
:10093000DDE90DB00C995D46002610B909F1010002
:100940000D18B9EB050003D4C0F1FF3609F101051C
:10095000A5EB09002BE0B9F1010F01DA4FF0010915
:100960000020B9F1110F0090484601DD112300E08D
:1009700003460AAA01A90CA8FFF7ABFEDDE90C703B
:100980004D4600268346207800070AD4AB4500DA9E
:100990005D4601A8012D04DD411911F8011C302923
:1009A00007D04F4502DA17F1040F04DA012082461E
:1009B0000FE06D1EEEE7002F02DCED1B3E4403E06E
:1009C000781CA84200DD7D1CB81B00F1010A4FF025
:1009D00000472078000703D4AA4501DB4FF0FF3A17
:1009E0000021B7F1004F0DF143088DF8431024D0DA
:1009F00002202B23002F01DA7F422D230A21021E21
:100A0000A0F1010000DC5FB197FBF1FC97FBF1F274
:100A100001FB1C7C17460CF1300C08F801CDEEE709
:100A2000A8F1010003702188090501D5452100E0E6
:100A30006521A0F1010800F8011C09980FA9A1EB9C
:100A40000807FF1D00B10120411901EBEA70A169FF
:100A50003844081A401EA0612078C00602D42046FF
:100A6000FFF70CFB099828B1D4E901219047206ACF
:100A7000401C20622078C00622D52046FFF7FEFAEF
:100A80001EE0002E04DBB34502DD01A8805D00E01E
:100A90003020D4E901219047206A401C2062761C56
:100AA000AAF101005FEA000A0AD100F0E4FCC06884
:100AB0000168405CD4E901219047206A401C206213
:100AC000281EA5F10105DCDC07E0D4E9012118F8B6
:100AD000010B9047206A401C2062381EA7F10107D5
:100AE000F3DC2046FFF7E0FA032011B041E610B531
:100AF000436913B1AFF3008001E0FFF7E6FA01208C
:100B000010BD127800F124010A7000224A700122FF
:100B1000EDE711684FF0FF32E9E70000074B70B5D1
:100B20000D467B4400F011F80446284600F0D2F848
:100B300010B14FF0FF3070BD204670BD47080078FF
:100B400001694A1C02610878704700B58FB0CDE991
:100B500001310021059105497944CDE90310114681
:100B60006846FFF743FB0FB000BD0000E5FFFFFF45
:100B70002DE9F0411F46044603260168072A01F4C7
:100B8000006004DB08B116A505E016A503E008B176
:100B900015A500E015A521F010002060A069C01E79
:100BA000A0610FB1401EA0612046FFF767FA4FB168
:100BB000D4E9012138469047206A401C2062C01CBD
:100BC000206206E0206AFAE7D4E9012115F8010B5A
:100BD0009047761EF8D22046FFF766FABDE8F0810E
:100BE0004E414E006E616E00494E4600696E6600D1
:100BF0002DE9F047814616468AB0354878440DC83D
:100C00008DE80D0032487844801C03AC0DC884E8A0
:100C10000D0041F69B300844372190FBF1F290FB28
:100C2000F1F5A5F1800501FB12041B3C02D56442DD
:100C3000012000E00020DFF898A080460027FA4459
:100C4000AAF1BE0A0EE0E0070AD03246684607EB7A
:100C5000470101230AEB810100F0D1FA8DE807007A
:100C600064107F1C002CEED1194F7F44AE3F19E079
:100C7000E80715D007EB04100DF1180A90E80E00F4
:100C80008AE80E00C068F04201D1981908903246F7
:100C9000012306A903A800F0B2FA03AB83E807001A
:100CA0006D10641C002DE3D14FF0010332466946FC
:100CB000B8F1000F03A802D000F08CFA01E000F0B8
:100CC0009EFAC9E90001C9F808200AB0BDE8F0871A
:100CD0007C1C0100007B00F0800070475FEA400C44
:100CE00008BF91F0000F4FEA8C234FEAC12243EA7C
:100CF00051514FEA1C5018BF00F5F0404FEA300048
:100D000018BF41F000415FEA6C5C00F02980BCF143
:100D1000FF3F08BF40F080407047130C06BF12042D
:100D20004FF0100C4FF0000C130E04BF12020CF128
:100D3000080C130F04BF12010CF1040C930F04BF35
:100D400092000CF1020CD30F04BF52000CF1010C05
:100D500011464FF00002A0F11F00A0EB0C007047FD
:100D600011F0004F08BF704731F000413FF4D5AF9C
:100D70000B0C06BF09044FF0100C4FF0000C0B0ECB
:100D800004BF09020CF1080C0B0F04BF09010CF1A0
:100D9000040C8B0F04BF89000CF1020CCB0F04BFB5
:100DA00049000CF1010CCCF12003A0EB0C0022FA5D
:100DB00003F302FA0CF241EA030100F1010070476B
:100DC00020F07F4C80EA030023F07F47ACEB070361
:100DD00003F57C5300F0004003F1FF032DE9804947
:100DE0004FEA154B09B44FEA144325EA0B4E24EAA7
:100DF00003480FF2042606EB132749083E785FEA02
:100E0000320203FB0667C7F5000707FB06F64FEA49
:100E100054374FEAD64606F1020607FB066CCCF1C2
:100E2000005C4FEA1C472CEA074C07FB06F40CFB5E
:100E300006F504EB15464FEA961634BF00204FF036
:100E400000404FEAD13706FB07FC4FEA1C4C0CFB75
:100E50000BF7D21B03FB0CF761EB07010CFB0EF742
:100E6000B0EB074072EB17420CFB08F734BFA2EB64
:100E70000742B2EB074261EB17414FEA0C444FEADD
:100E8000910706FB07FC4FEA1C4C0CFB0BF7B0EB81
:100E9000C74072EB573203FB0CF734BFA2EBC742DB
:100EA000B2EBC74261EB57310CFB0EF7B0EBC7005A
:100EB00072EB57720CFB08F734BFA2EBC702B2EB20
:100EC000C70261EB5771039F4FEA816141EA9211BA
:100ED00004EBCC044FEAD1374FEA826206FB07FCF1
:100EE00042EA90124FEA80604FEA1C4C0CFB0BF771
:100EF000D21B03FB0CF761EB07010CFB0EF7B0EB09
:100F0000074072EB17420CFB08F734BFA2EB074215
:100F1000B2EB074261EB17414FEA8C554FEA91075C
:100F200004EB9C2406FB07FC4FEA1C4C0CFB0BF764
:100F3000B0EBC74072EB573203FB0CF734BFA2EBA8
:100F4000C742B2EBC74261EB57310CFB0EF7B0EB77
:100F5000C70072EB57720CFB08F734BFA2EBC70255
:100F6000B2EBC70261EB577115EB4C254FEA81617B
:100F700041EA92114FEA82624FEAD13742EA901277
:100F800006FB07FC44F100044FEA80604FEA1C4C6A
:100F90000CFB0BF7D21B03FB0CF761EB07010CFBFF
:100FA0000EF7B0EB074072EB17420CFB08F734BFAB
:100FB000A2EB0742B2EB074261EB174115EB1C15A0
:100FC0004FEA813141EA92414FEA823242EA90424D
:100FD0004FEA80304FEA0C7644F1000448EA0343BC
:100FE0004EEA0B484FF0000EB2EB080C71EB030712
:100FF00024BF624639464EEB0E0E4FF0000B001830
:10100000524149414BEB0B0BB2EB080C71EB030760
:101010007BF1000B24BF624639464EEB0E0E4FF0BB
:10102000000B0018524149414BEB0B0BB2EB080C83
:1010300071EB03077BF1000B24BF624639464EEB90
:101040000E0E51EA020718BF46F0010616EB0E76A7
:1010500055F1000254F1000103D5BDE88901BDE856
:101060000088BDE88901BDE80048B619524141EB4E
:101070000101A3F10103704780807F7E7D7C7B7A34
:101080007978777676757473727171706F6E6E6D34
:101090006C6C6B6A6A6968686766666564646363DA
:1010A00062616160605F5F5E5E5D5D5C5C5B5B5A60
:1010B0005A595958585757565655555554545353CD
:1010C00052525251515050504F4F4F4E4E4D4D4D28
:1010D0004C4C4C4B4B4B4A4A4A4949494848484773
:1010E00047474746464645454544444444434343B1
:1010F0004342424242414141002B9C4630D477005A
:101100002BD01CB54FEA370703B44FF010004FF057
:101110001001BAF1000F06D0BCF1000FDCBF40F0A7
:10112000080040F008014FF000000FBCBDE810407F
:101130000BF1010BBBF1010F08BF5FEA170722BFDC
:1011400012F1010211F101014FF0004143F10003DE
:1011500000F0004043EA00007047F9D35708D0E799
:1011600046EA064613F1400F4FEA16461FDD13F11B
:10117000200FDFBF16430A46002120335B42BED05A
:10118000C3F1200746EA064602FA07F74FEA164679
:1011900046EA0706C3F1200722FA03F201FA07F72D
:1011A00021FA03F14FF0000342EA0702A7E746EAFB
:1011B000020646EA06464FEA164646EA0106BCBF64
:1011C00046EA0646360C4FF000034FF000024FF09F
:1011D000000194E72DE9804C9A46934670B491E85B
:1011E000380007C831EA400C48BF34EA430C03D545
:1011F000FFF7E6FDFFF780FFF0BCBDE8008C2DE9AE
:10120000804C9A46934670B491E8380007C810F0B5
:10121000804F08BF13F0804F03D100F005F8FFF7AF
:101220006BFFF0BCBDE8008C20F07F4780EA030034
:1012300023F07F4C07EB0C03A3F57C5300F0004038
:10124000A3F1FE0392F0000F00F0B38095F0000FC1
:1012500000F077802DE901494FEA11404FEA14462A
:1012600021EA004800FB06FC24EA064708FB06F6D4
:1012700007FB08F800FB07F718EB06484CEB164C89
:101280004FEA124B18EB07484FEA15464CEB174054
:1012900022EA0B4E0BFB06FC25EA06470EFB06F680
:1012A00007FB0EFE0BFB07F71EEB064E4CEB164C36
:1012B0004FF000061EEB074E4CEB174B18EB0B08DC
:1012C00040F1000018EB0E0B58EB000840F1000055
:1012D0008F1A4FF000013CBFC943661B14BFB5EB2A
:1012E000040C00213CBFC943F61B4FEA17444EEAE9
:1012F0008E0E27EA04454FEA1C4704FB07622CEADE
:10130000074C05FB07F70CFB05F604FB0CFC16EB82
:10131000074642EB174216EB0C4642EB1C421BEB16
:10132000060658EB0202414146EA9E0601D5BDE899
:101330000189B619524141EB0101A3F10103BDE856
:1013400001894FEA14454FEA114724EA054621EA8C
:10135000074C05FB07F406FB07F70CFB06F105FB42
:101360000CFC11EB074144EB17444FEA124711EB19
:101370000C4144EB1C4422EA074C05FB07F206FB38
:1013800007F70CFB06F605FB0CFC16EB074642EBD9
:10139000174216EB0C4642EB1C456A1854F100014B
:1013A00048BF7047B619524141EB0101A3F1010357
:1013B000704795F0000F37D04FEA11424FEA1447BB
:1013C00021EA024624EA074C02FB07F106FB07F775
:1013D0000CFB06F402FB0CFC14EB074441EB174139
:1013E0004FEA154714EB0C4441EB1C4125EA074C2E
:1013F00002FB07F506FB07F70CFB06F602FB0CFCED
:1014000016EB074645EB174516EB0C4645EB1C4221
:10141000121951F1000148BF7047B619524141EB12
:101420000101A3F1010370474FEA14454FEA114748
:1014300024EA054621EA074C05FB07F106FB07F7FE
:101440000CFB06F24FF0000605FB0CFC12EB07420A
:1014500041EB174112EB0C4251EB1C4148BF704766
:10146000921841EB0101A3F10103704740F2993C4E
:10147000C0F6000C604740F28D4CC0F6000C60478F
:1014800040F6150CC0F6000C604740F2196CC0F62F
:10149000000C604740F6713CC0F6000C604740F617
:1014A000E52CC0F6000C604740F6A90CC0F6000C15
:1014B000604740F68F0CC0F6000C604741F2451CB7
:1014C000C0F6000C604740F6210CC0F6000C6047E7
:1014D00041F2C51CC0F6000C604740F6193CC0F64E
:1014E000000C604740F6453CC0F6000C604740F6F3
:1014F0000B0CC0F6000C604741F21D3CC0F6000C1E
:10150000604741F2393CC0F6000C604740F6010CE0
:10151000C0F6000C604740F24B3CC0F6000C604740
:1015200040F24F3CC0F6000C6047FEE72048F0B4A4
:10153000204C214E204A603C0068603E1D4BB83A6A
:101540001D4D984201D91D4903E0A04203D9194914
:10155000B439096809E0A84202D91649B839F8E750
:10156000B04201D9516800E0116811F4006F1CD03D
:1015700098424FF4006102D91048001D08E0A042D3
:1015800002D90C48AC3803E0A84203D90948B03866
:10159000016004E0B04201D9D16000E091600848E8
:1015A0000068002801D0F0BC0047F0BC7047000084
:1015B00040020024B8040240B8000240005402581F
:1015C0003000002401681823CAB2103AB2FBF3F2CB
:1015D000054B6FF30901032A9B5CC36500D9091D04
:1015E00081650846704700000424019010B5124937
:1015F0000123026854188C2CD1B20AD8142208395D
:10160000B1FBF2F10D4A02EB810202660B4A803215
:101610000EE018241039B1FBF4F1094C2244A82A39
:1016200000D80831074A02EB81020266054A80327F
:101630008B40C0E9192310BDF8ABFDA70058025834
:10164000F0FBFDBF0008024010B5017903684A1E97
:10165000072A14D80A4C23448C2B06D8094B03EBD9
:101660008101C1660749443105E0074B03EB810165
:10167000C16605494431016701219140416710BDB0
:10168000F8ABFDA7FC580258FC080240014610B513
:1016900000208B694FF0C0748A6A53B1B3F5005FC4
:1016A00015D072B1012A0CD0022A0AD0032A09D11E
:1016B00004E01AB1012A06D0022A03D1C96AC9017D
:1016C00000D5012010BDC96AA142FAD010BD002A80
:1016D000F7D0012AF2D0022AF3D0032AF3D010BDAA
:1016E00010B5046863608368402B036803D0996079
:1016F0000068C26010BD9A600068C16010BD70478C
:1017000030B5D1E901230D681A43D1E903342343ED
:101710001A434B691A438B691A43D1E90734496A62
:10172000012D056807D01A4322430A436FF30E05C3
:101730002A4302600AE025F4F845234329430B437A
:10174000416803606FF30E010A434260002030BD20
:10175000426942EA410141610020704718B5D1E970
:1017600000236FF01F041A438B68C96804EB43130E
:1017700043EA41210A4300920261002018BD0000A3
:10178000F0B5D1E900346FF00F055B1E2E0105EBBB
:10179000041423438C682F034FEA054C0D8A06EB93
:1017A00004248E8A2343CC68097E4FF07F4E012AA1
:1017B00007EB05450CEB06560EEB01610CD0826879
:1017C0003F1107EB043423432B4333430B4302F015
:1017D0007042134383600FE08768084A1740220372
:1017E000C468A2F5805232433A4382602B430B43D4
:1017F00004F070442343C3600020F0BDFF0F0FFFCF
:101800002DE9F041294E044600680025DDF818C096
:101810004FF4956700EB060EBE4519D8D4F808E0E2
:10182000BEF1800F14D094F834E0BEF1010F12D055
:101830004FF0010E84F834E094F835E0BEF1010F6A
:101840000BD04FF40060606501252846BDE8F081AB
:101850004FF48070F7E70220F8E74FF0020E84F8AB
:1018600035E04FF0000EC4F854E0D0F800E04EF43C
:10187000802EC0F800E02068036163462046FFF731
:101880002FFF94F85C203F21A06D91408160D4E946
:1018900019014160E06E10B1D4E91C01416020687B
:1018A0008119016841F001010160CEE7F0FFFDBF41
:1018B00010B528B190F83510022903D08021416578
:1018C000012010BD1D4A4FF4956301688C189C429D
:1018D00007D8042280F83520086820F0010008604D
:1018E00029E00C6824F00E040C6001680A440A68C0
:1018F00022F001020A60016E0A6822F480720A6016
:1019000090F85C30012202FA03F10D4B1960D0E926
:1019100019134B60C16E31B10B6823F480730B60F7
:10192000D0E91C134B60002180F8341080F835207A
:10193000016D01B18847002010BD0000F0FFFDBF20
:101940000454025870B5040024D094F835000228DD
:1019500022D020682A49036823F00103036020682D
:1019600000250144B1F5956F1AD8056020684560DF
:10197000206885602068C560206805612120216895
:1019800048612046FFF71EFE94F85C203F219140FD
:10199000816016E0012070BD4FF400606065F9E7DA
:1019A000184901448C290CD80560206845602068DE
:1019B00085602068C560012094F85C108840124959
:1019C00008602046FFF712FE206E18B10560D4E9CA
:1019D000190141606068401E072807D82046FFF7BC
:1019E00033FEE06E0560D4E91C014160E5662567C1
:1019F0006567656584F83550002084F8345070BD03
:101A0000F0FFFDBFF8ABFDA7045402582DE9F047E5
:101A10000446FFF735FD0646BCB15E492027206825
:101A200000254FF0010A4FF0030842184FF040091B
:101A30000221B2F5956F50D884F8345084F83510EF
:101A4000016821F00101016009E00120BDE8F08793
:101A5000FFF716FD801B052801D9676579E020682E
:101A60000068C007F4D121680A684B480240D4E9F5
:101A700002031843D4E9043633431843A3691843D7
:101A8000E3691843236A18431043626A042A03D1A6
:101A9000D4E90B231A43104308602068406920F002
:101AA0000701606A042840EA01060BD1A06A0643D8
:101AB000E06A38B12046FFF7E9FD18B1C4F8549048
:101AC000504647E0206846612046FFF77BFD94F8CA
:101AD0005C203F21914081602DE0304BC2188C2A60
:101AE00035D884F8345084F83510026847F6F07120
:101AF0008A43A168402925D0802925D00021E668A5
:101B000041EAD601266941EAD601666941EAD60171
:101B1000A66941EAD601E66907EAD6063143266A94
:101B200041EA161111430160206814211844B0FBEA
:101B3000F1F08000E0652046FFF758FDA06880289E
:101B40000BD00BE01021DAE74FF48041D7E7C4F85F
:101B50005490404684F8350077E76560216E20791F
:101B60000860D4E9190141606068401E072808D860
:101B70002046FFF769FDE06E0560D4E91C01416075
:101B800002E0E56625676567656584F835A0002095
:101B90005CE70000F0FFFDBF3F8010FEF8ABFDA743
:101BA0002DE9F041044690F8A00015460F460128A3
:101BB0001DD0012684F8A060022084F8A10005EB66
:101BC000850000EBC500342204EB80003830FEF7BE
:101BD00032FC2A463946204602F022F82068466246
:101BE00084F8A160002084F8A000BDE8F081022004
:101BF000FBE7000070B5040004D094F8A1000025B4
:101C000010B106E0012070BD204684F8A05000F01D
:101C10006BF8022084F8A1002068816921F07041EE
:101C20008161D4E901100143D4E903021043014367
:101C300020688269114381612068826829490A40CD
:101C40008260A08A020420688368A6693343134334
:101C500083602068C2680A40C260A08B02042068CA
:101C6000C368266A33431343C360206802690A408D
:101C70000261A08C020420680369A66A33431343FF
:101C80000361206842690A404261A08D0104206816
:101C90004269236B1A430A43426194F835000202F9
:101CA00094F8360001042068C36A03F07F43C362DE
:101CB0002068C36A114394F8346033430B43C36212
:101CC0002068416B41F0060141632068816941F061
:101CD00001018161C4F8A450012084F8A100002012
:101CE00070BD000000F800F02F4810B586B0016804
:101CF00041F008010160006800F0080005902A48E2
:101D00001038016841F010010160006800F0100017
:101D100005902548001F016841F00201016001683B
:101D200001F002010591016841F4807101600168D0
:101D300001F480710591016841F40071016001684E
:101D400001F400710591016841F48061016000684F
:101D50000324694600F48060059020200090012053
:101D60000190CDE902041148FFF78FFB4FF4E040EA
:101D700000900220019000206946CDE902040E2067
:101D800004900B48FFF781FB48F67C6000900948FF
:101D90006946FFF77AFBFF20009007486946FFF786
:101DA00074FB06B010BD0000E44402580004025861
:101DB00000200258002402580028025870B504463A
:101DC00090F8A0000E46012820D0012584F8A050EC
:101DD000022084F8A10003EB830000EBC30004EBB6
:101DE00080018E63086E3044C1E90F02486E1044D2
:101DF000486438311A46204601F012FF20684562D7
:101E000084F8A150002084F8A00070BD022070BDAD
:101E100070B5044690F8A0000E46012820D0012598
:101E200084F8A050022084F8A10003EB830000EBAB
:101E3000C30004EB8001886B3044C863086C104415
:101E40004864C1E9186238311A46204601F0E8FEBC
:101E50002068456284F8A150002084F8A00070BD7D
:101E6000022070BD10B5FFF715FB084909684FF453
:101E7000807292FAA2F201F47061B2FA82F2D14059
:101E8000034A515CC8400349086010BD1844025819
:101E9000E61800080000002410B5FFF700FB074912
:101EA0000968102292FAA2F201F07001B2FA82F2ED
:101EB000D140034A515CC84010BD00002044025884
:101EC000E6180008364930B50A68096812F00302BE
:101ED000344BC1F305111B68334C03F00103246834
:101EE000DFED320AB7EE001AC4F3CC0414FB03F39F
:101EF00000EE103A2E4BB8EE400A07D02D4C012AC6
:101F000001D0022A4AD0B4FBF1F10BE0244C283C6A
:101F100022689506284A03D52468C4F3C104E24028
:101F2000B2FBF1F101EE901A1968B8EE612AC1F323
:101F3000080101EE901A1968F8EE611A40EE201AB5
:101F400031EE810A22EE000AC1F34621491C00EE5F
:101F5000901AF8EE600A80EE201AFCEEC10AC0ED7D
:101F6000000A1968C1F30641491C00EE901AF8EE08
:101F7000600A80EE201AFCEEC10AC0ED010A196861
:101F8000C1F30661491C00EE901AF8EE600A80EE7B
:101F9000201ABCEEC10A80ED020A30BD074ABFE735
:101FA000284402582C440258344402580000003996
:101FB0003044025800093D000090D00340787D0174
:101FC000364930B50A68096812F00302344BC1F390
:101FD00005311B68334C03F010032468DFED320A2F
:101FE000B7EE001AC4F3CC0414FB03F300EE103A6E
:101FF0002E4BB8EE400A07D02D4C012A01D0022A00
:102000004AD0B4FBF1F10BE0244C283C2268950641
:10201000284A03D52468C4F3C104E240B2FBF1F1BD
:1020200001EE901A1968B8EE612AC1F3080101EEB9
:10203000901A1968F8EE611A40EE201A31EE810A02
:1020400022EE000AC1F34621491C00EE901AF8EE78
:10205000600A80EE201AFCEEC10AC0ED000A196881
:10206000C1F30641491C00EE901AF8EE600A80EEBA
:10207000201AFCEEC10AC0ED010A1968C1F306611D
:10208000491C00EE901AF8EE600A80EE201ABCEEB1
:10209000C10A80ED020A30BD074ABFE72844025852
:1020A0002C4402583C44025800000039384402587D
:1020B00000093D000090D00340787D01364930B5DD
:1020C0000A68096812F00302344BC1F305511B681A
:1020D000334C03F480732468DFED320AB7EE001A44
:1020E000C4F3CC0414FB03F300EE103A2E4BB8EE0D
:1020F000400A07D02D4C012A01D0022A4AD0B4FB55
:10210000F1F10BE0244C283C22689506284A03D5BF
:102110002468C4F3C104E240B2FBF1F101EE901A6D
:102120001968B8EE612AC1F3080101EE901A196826
:10213000F8EE611A40EE201A31EE810A22EE000A12
:10214000C1F34621491C00EE901AF8EE600A80EEB9
:10215000201AFCEEC10AC0ED000A1968C1F306415D
:10216000491C00EE901AF8EE600A80EE201AFCEE90
:10217000C10AC0ED010A1968C1F30661491C00EEED
:10218000901AF8EE600A80EE201ABCEEC10A80EDCB
:10219000020A30BD074ABFE7284402582C440258BF
:1021A00044440258000000394044025800093D00F0
:1021B0000090D00340787D012DE9F0434F4A01465D
:1021C000DFF834810020DFF8309189B04C4C1311D6
:1021D0004C4DB1F5806FA8F104064FF080574FF0D9
:1021E000005C09F1080956D011DC4FF480794945AB
:1021F00020D0B1F5007F2CD1D8F8001001F4E071A7
:1022000080292ED042DC01B3402922D124E0B1F54F
:10221000006F55D04FF4805949451AD1D8F80010B5
:1022200001F4E041B1F5005F1BD05EDC69B14945C6
:102230000FD111E0D8F8001001F00701052908D2EC
:10224000DFE801F0030A0F2214006846FFF73AFEA8
:10225000019809B0BDE8F08303A8FFF7B1FE039829
:10226000F7E706A8FFF72AFF0698F2E7316811F0B2
:10227000405103D0B94203D11846EAE71046E8E7D7
:102280006145E6D12046E4E72846E2E7C029FBD0D5
:102290004945DED1EAE7D9F8001001F46001B1F553
:1022A000800FDED005DC0029CFD0B1F5001FD0D1E2
:1022B000D2E7B1F5C00FE7D0B1F5000FC9D1D5E72E
:1022C000D9F8001001F0E061B1F1007FC9D005DC60
:1022D0000029BAD0B1F1807FBBD1BDE7B1F1407F19
:1022E000D2D0B1F1806FB4D1C0E7B1F5405FCBD0AF
:1022F000B1F5804FBAD0ACE7504402580090D003FB
:1023000040787D010080BB002DE9F84F044600684D
:1023100000252E46010104F12400FE4FDFF8F8836A
:1023200000901DD5606E50B1B0F5801F0CD0B0F597
:10233000001F0ED0B0F5401F1DD001250FE03868FA
:1023400040F40030386016E00221201D01F04EFDFF
:1023500003E00098022101F0C1FD05000BD02E46DC
:102360002088C00523D5606D05281ED2DFE800F067
:102370000C11161B1B00D8F80010626E21F44011DE
:102380001143C8F80010EBE7386840F400303860BB
:1023900009E00021201D01F029FD03E00098002143
:1023A00001F09CFD05466DB100E001252E4320881B
:1023B000800528D5A06D80281ED00CDC90B1402867
:1023C0000ED114E0D8F80010626D21F0070111431E
:1023D000C8F80010EBE7C02813D0B0F5807F10D00C
:1023E00001250FE0386840F40030386009E0002132
:1023F000201D01F0FBFC03E00098002101F06EFDC0
:10240000054685B12E432088DFF8109340052CD572
:10241000D4F8A400B0F5800F20D00DDCA0B1B0F549
:10242000001F0FD115E0D8F80010A26D21F4E07163
:102430001143C8F80010E6E7B0F5C00F13D0B0F5AF
:10244000000F10D001250FE0386840F400303860EC
:1024500009E00021201D01F0C9FC03E000980021E3
:1024600001F03CFD054675B12E43208800052DD5B1
:10247000D4F8A800B0F1007F21D00EDCA8B1B0F1F3
:10248000807F10D116E0D9F80010D4F8A42021F4F0
:1024900060011143C9F80010E7E7B0F1407F13D0A5
:1024A000B0F1806F10D001250FE0386840F40030A3
:1024B000386009E00021201D01F098FC03E000983D
:1024C000002101F00BFD05466DB12E43206880010F
:1024D0001FD5A06CD8B110280FD0202812D03028DA
:1024E00015D0012514E0D9F80010D4F8A82021F067
:1024F000E0611143C9F80010E8E7386840F40030A3
:10250000386004E00221201D01F070FC05466DB129
:102510002E432088C0042BD5E06DB0F5005F20D09D
:102520000DDCA0B1B0F5805F0FD115E07A48001F37
:102530000168A26C21F0300111430160E9E7B0F5B8
:10254000405F13D0B0F5804F10D001250FE0386800
:1025500040F40030386009E00021201D01F046FC05
:1025600003E00098002101F0B9FC054685B12E4337
:102570002088800429D5206EB0F5403F23D010DCA0
:1025800008B3B0F5803F14D0B0F5003F0FD115E08F
:10259000D8F80010E26D21F4E0411143C8F80010B2
:1025A000E6E7B0F5802F0ED0B0F5A02F0BD00125B7
:1025B0000AE00121201D01F019FC03E0009801212F
:1025C00001F08CFC05468DB12E43208840042AD5AD
:1025D000D4F8AC00B0F1405F23D010DC08B3B0F108
:1025E000805F14D0B0F1005F0FD115E0D8F8001073
:1025F000226E21F4E0211143C8F80010E5E7B0F1A4
:10260000804F0ED0B0F1A04F0BD001250AE0012180
:10261000201D01F0EBFB03E00098012101F05EFCBE
:1026200005466DB12E43208800041FD5E06ED8B159
:10263000B0F1805F0ED0B0F1005F10D0012514E042
:10264000D9F80010D4F8AC2021F0E0411143C9F8CA
:102650000010E8E7386840F40030386004E00121F9
:10266000201D01F0C3FB05466DB12E432068C0015B
:102670001ED5606CD0B101280ED0022811D00328DD
:1026800014D0012513E0D8F80010E26E21F040517B
:102690001143C8F80010E9E7386840F400303860AA
:1026A00004E00221201D01F0A1FB054675B12E4377
:1026B0002068DFF86CB040025AD51A48016841F42E
:1026C00080710160FEF7DCFE82460EE01248001FBA
:1026D0000168626C21F0030111430160E8E7FEF735
:1026E000CFFEA0EB0A0064283AD80E480068C00567
:1026F000F5D5B5BB094818300068B4F8B01000F43F
:10270000407001F44071884219D0044818300168C3
:102710000AE000002C440258504402585844025821
:102720001044025800480258026821F4407142F4F3
:1027300080320260026822F4803202600160D4F8C4
:10274000B000B0F5807F22D1FEF79AFE824609E004
:10275000FEF796FEA0EB0A0141F28830814201D9D2
:10276000032504E0FE4800688007F1D57DB12E43C3
:102770002078DFF8F0A3C0073CD0A06F182837D02E
:1027800025DC78B3082828D0102824D12BE0D4F8F1
:10279000B000C0F3012103290ED0DBF8001021F4B2
:1027A0007C51CBF80010EE480168B4F8B020C2F3B9
:1027B0000B0211430160DBE7DBF80020EA4B22F457
:1027C0007C5203EA10100243CBF80020EBE72028EC
:1027D0000ED028280CD001250BE00121201D01F08E
:1027E00005FB04E004E00098012101F077FB0546B9
:1027F0005DB12E43207880071ED5606F062819D260
:10280000DFE800F0160C11161616DAF80010A26FA9
:1028100021F038011143CAF80010EBE70121201D17
:1028200001F0E4FA03E00098012101F057FB0546AE
:1028300075B100E001252E43207840071FD5D4F85C
:102840009000062819D2DFE800F0160C11161616B3
:10285000DAF80010626F21F007011143CAF8001086
:10286000EAE70121201D01F0C1FA03E000980121EF
:1028700001F034FB05469DB100E001252E43207890
:1028800080062BD5D4F88C00B0F1405F24D011DC49
:1028900010B3B0F1805F15D0B0F1005F10D116E039
:1028A000D9F80010D4F8902021F007011143C9F89D
:1028B0000010E4E7B0F1804F0ED0B0F1A04F0BD084
:1028C00001250AE00021201D01F090FA03E00098A4
:1028D000022101F003FB05468DB12E43207840060E
:1028E0002BD5D4F89800B0F5406F24D011DC10B38C
:1028F000B0F5806F15D0B0F5006F10D116E0DAF8A2
:102900000010D4F88C2021F0E0411143CAF80010E7
:10291000E4E7B0F5805F0ED0B0F5A05F0BD00125E5
:102920000AE00021201D01F061FA03E00098022175
:1029300001F0D4FA05468DB12E43207800062BD540
:10294000D4F89C00B0F5C04F24D011DC10B3B0F522
:10295000005F15D0B0F5804F10D116E0D9F8001007
:10296000D4F8982021F4E0511143C9F80010E4E7AD
:10297000B0F5004F0ED0B0F5204F0BD001250AE086
:102980000021201D01F032FA03E00098022101F03D
:10299000A5FA054665B32E43207800070BD5D4F879
:1029A0008000B0F5805F2DD0DAF8002022F440528C
:1029B0000243CAF800202078C0060BD5D4F8940052
:1029C000B0F5807F24D0D9F8002022F44072024371
:1029D000C9F80020206800032CD5D4F8A000E8B185
:1029E000B0F5803F1FD0B0F5003F21D0012520E099
:1029F000D9F80010D4F89C2021F460411143C9F8A3
:102A00000010C9E70098022101F068FA0643D2E7F6
:102A10000098022101F062FA0643DBE70021201D45
:102A200001F0E4F903E00098022101F057FA0546AD
:102A300085B12E432068400322D5D4F88400B0F538
:102A4000801F11D0B0F5001F13D0B0F5401F15D076
:102A5000012514E0D9F80010D4F8A02021F4403169
:102A60001143C9F80010E5E7386840F400303860D9
:102A700004E00098012101F031FA054655B12E43DA
:102A80002068C0031CD5E06C70B1B0F5803F10D059
:102A9000012514E0DAF80010D4F8842021F4401164
:102AA0001143CAF80010EBE7386840F40030386092
:102AB00004E00221201D01F099F90546C5B12E431D
:102AC0002068800004D50098022101F007FA06432F
:102AD000206880031BD5E06FB8B1B0F5807F10D0BF
:102AE000B0F5007F11D0B0F5407F0ED001250DE08C
:102AF0001C4808380168E26C21F480311143016000
:102B0000DEE7386840F40030386045B32E43206873
:102B1000C00207D5D8F80000226F20F00040104313
:102B2000C8F800002068C00008D5DBF80010D4F811
:102B3000B42021F480411143CBF8001020688002BA
:102B400007D5D8F80010A26E21F080711143C8F8A3
:102B500000102068400014D5DBF8001006E01EE0ED
:102B60007044025854440258CFFFFF0021F4004142
:102B7000CBF80010DBF80010D4F8B8201143CBF8E4
:102B800000102068002806DA0A480168226D21F04A
:102B90004051114301605EB10120BDE8F88FDAF8C1
:102BA0000010E26F21F440711143CAF80010AEE743
:102BB0000020F2E74C44025870B504001AD00220FD
:102BC00084F88D00206800250561681E21688861F1
:102BD0001B4920681B4A1C4B884206D0904204D0F7
:102BE000984202D0194EB04216D1884204D11448FE
:102BF000001F0DE0012070BD904202D11148001F5E
:102C000006E0984202D11048001F01E00F48001F63
:102C1000416C21F001014164204601F0D7F92068A0
:102C2000416841F008014160204600F073F9C4F8A2
:102C3000905084F88D50002084F88C5070BD0000B6
:102C400004580140045C01400460014004540058F1
:102C50002DE9F05F4FF0000704003E4617D094F8CE
:102C60003400A64ADFF898820128DFF8989211D143
:102C70002068904206D0404504D0484502D0A24981
:102C8000884204D16068012801D1206C10B1012074
:102C9000BDE8F09F20689346584503D097492031FE
:102CA000884202D1954D2D1F13E0404503D0944931
:102CB0002031884202D1924D2D1F0AE0484503D0B1
:102CC00090492031884202D18E4D2D1F01E08E4D5A
:102CD0002D1F94F88D0028B9002084F88C00204620
:102CE00000F01AF9022084F88D00204601F06EF9F8
:102CF000686C20F00100686494F8340001280ED15B
:102D00003022D4E90E0192FAA2F2401EB2FA82F207
:102D1000904001436964686C40F001006864E068B9
:102D200038B1012802D0022803D101E0102700E0C9
:102D30002027A0684FF4006A70B1012804D002284F
:102D400005D0032808D104E04FF4806604E056461D
:102D500002E047F0010756462F604FF40075E06926
:102D6000F0B321680020594503D0644A20329142D3
:102D700003D14FF48070FFF71FFA2168414503D05B
:102D80005F4A2032914202D12846FFF715FA2168A6
:102D9000494503D05B4A2032914202D12846FFF7D1
:102DA0000BFA594922688A4203D14FF48060FFF739
:102DB00003FA554A21682032914202D15046FFF76A
:102DC000FBF96169B1F5002F7ED0616AB1F1806FC6
:102DD0007BD0012100EB80004200E069484300E025
:102DE0000EE00002B2FBF0F00A22B0FBF2F3B0FBFF
:102DF000F2F1216202FB1300082801D9491C21626B
:102E00006068E8B3022874D0E06C012800D0002587
:102E1000206801683D4A11400160216C60680843E8
:102E2000D4E9111211430843A16A284330430843EF
:102E30002169084361690843218C40EA0151606AB5
:102E400001432068026811430160206841684EF226
:102E50000F029143416020684168A2691143D4E99F
:102E60000B231A431143416020688168284A1140AE
:102E70008160216EA06D226D0143E06D521E00E065
:102E800037E010430143606D6FF0FF0202EB00205A
:102E9000014320688368194381602068C1684FF24C
:102EA00020031940C160D4E919100143E06E02EB20
:102EB0000020B4F8702040EA024001432068C26854
:102EC0001143C160002001E008E010E0C4F8900068
:102ED000012184F88D1084F88C00D9E6226D00EB76
:102EE0008000E16951434000B0FBF1F07CE7022132
:102EF00070E7E06C01288AD08AE70000045801409E
:102F0000045C0140046001400454005810C005FCFA
:102F10000080F8FF70470000124800B587B00168D4
:102F200041F480010160006800F4800005900D48C4
:102F30001038016841F0100101600068694600F036
:102F4000100005907C20009002200190012002904A
:102F500003200390062004900348FEF796FA07B07A
:102F600000BD0000F04402580010025870B5040083
:102F70000D4603D094F82C0010B107E0012070BD7D
:102F8000002084F82D00204600F018F8022084F874
:102F90002C002068211DFEF7B3FBD4E9000229466E
:102FA000FEF7EEFB0448016841F00041016001209A
:102FB00084F82C00002070BD00400052444800B549
:102FC00087B0016841F002010160006800F0020072
:102FD00005903F482038016841F480510160006845
:102FE00000F4805005903A481438016841F004011B
:102FF0000160016801F004010591016841F00801D8
:103000000160016801F008010591016841F01001BB
:103010000160016801F010010591016841F0200193
:103020000160016801F020010591016841F0400153
:103030000160016801F040010591016841F08001E3
:103040000160016801F080010591016841F480711F
:1030500001600068694600F4807005900D200090C2
:103060000220019001200290032003900C20049084
:103070001848FEF70AFA4CF20370009016486946A9
:10308000FEF703FA4FF68370009014486946FEF786
:10309000FCF94FF63F00009011486946FEF7F5F93C
:1030A00048F2371000900F486946FEF7EEF94FF4EA
:1030B0007F4000900C486946FEF7E7F940F2FF6058
:1030C00000900A486946FEF7E0F907B000BD00002D
:1030D000F444025800080258000C0258001002582C
:1030E0000014025800180258001C02580020025810
:1030F00010B5044690F82C00022809D0022084F86C
:103100002C002068FEF724FB012084F82C0000200E
:1031100010BD70B5044690F82C000D4602280CD066
:10312000022084F82C002068FEF718FB286802288B
:1031300004D0012084F82C00002070BD0520F9E7A0
:103140002DE9F05F04004FF000053DD0DFF8C481A9
:103150002068714E714F4045A36A06D0B04204D03A
:10316000B84202D0E1680F292ED8E26B4FF0010B74
:103170000BEB521CE26802F10801C908404501FB53
:103180000CF105D0B04203D0B84201D008291BD8B9
:10319000404503D0B04201D0B84201D1102913D824
:1031A0004FF480094B4512D1404507D0B04205D0BD
:1031B000B84203D0206BB0F5702F05D8256B05B948
:1031C0001504B2EB154F02D90120BDE8F09F94F829
:1031D00081004FF0000A20B9204684F880A000F05A
:1031E0009FF8022084F881002068016821F0010125
:1031F0000160A069B0F1806F09D16068484506D1CF
:10320000A06B20B92068016841F480510160A16A77
:10321000E0690843E16B29430843E16808432168FA
:103220008860616A606BA2690843A16B114308431F
:103230002169084361690843216A084361680843BA
:10324000E16C0843A1680843A16C0843A16D0843E1
:103250002168C860A06A484529D1206C01282068EF
:10326000016827D021F400410160606C01282068CA
:10327000016822D021F4804101602068404506D0D9
:10328000B04204D0B84202D0B5F5702F18D04045F6
:1032900003D0B04201D0B84202D1B5F5F81F0FD02B
:1032A000016821F4005101602168E06A08646068E7
:1032B00050B119E041F40041D6E741F48041DBE729
:1032C000016841F40051EEE7A06A30B920688168D6
:1032D00021F4C05141F4006181602068816821F4CB
:1032E000C06141F4806181602068016D21F00101BD
:1032F00001656068400206D52068C168626D21F0F2
:1033000000411143C160C4F884A084F881B000205A
:103310005BE700000030014000380040003C004006
:10332000164800B5B5B0016841F0020101600068BF
:1033300000F00200349011480830016841F48041E7
:103340000160006800F4804034904FF48050009099
:10335000002017906846FEF7D7FF4FF460402F908B
:1033600002203090012031900320329005203390CC
:1033700003482FA9FEF789F835B000BDE044025894
:10338000000402582DE9F84F044690F880001F46CB
:1033900092460A9D01288B4613D04FF0010984F80C
:1033A0008090FEF76DF894F8812006460020012AEF
:1033B0004FF480010ED062688A4209D1A2683AB9FE
:1033C00002E00220BDE8F88F94F88120042A01D0A1
:1033D000022136E0BBF1000F32D0BAF1000F2FD03E
:1033E00077B394F88120042A02D0052284F8812042
:1033F0008046C4F88400C4F864A0A4F86A70A4F8F5
:103400006870C4F85CB0A4F86270A4F860702067BB
:103410006067206842686FF30F023A434260206899
:10342000026842F0010202606068884204D12068AC
:10343000016841F400710160E0680F2840D848E05D
:10344000012184F880000846BCE7B4F8620070B13E
:103450002068416989070AD5E16D09680162E06D5C
:10346000001DE065B4F86200401EA4F86200B4F8E4
:103470006A0080B12068416948F2080211420AD00E
:10348000006B616E0860606E001D6066B4F86A00D3
:10349000401EA4F86A00681C12D0FDF7F1FF801BE3
:1034A000A8420DD3204600F0B1FD84F88080D4F806
:1034B000840040F48070C4F8840084F88190EBE0CC
:1034C000B4F862000028C0D1B4F86A000028BCD16A
:1034D000C8E0072849D8BDE0B4F86200F0B1206820
:1034E000416989071AD5B4F8621001290BD9E16B3B
:1034F00049B1E16D09680162E06D001DE065B4F855
:103500006200801E08E0E16D09880184E06D801C86
:10351000E065B4F86200401EA4F86200B4F86A00E6
:10352000E0B12068416911F4604F17D04169090486
:1035300009D5006B616E0860606E001D6066B4F8AE
:103540006A00801E08E0008E616E0880606E801C3C
:103550006066B4F86A00401EA4F86A00681C04D0D3
:10356000FDF78EFF801BA8429CD2B4F862000028B1
:10357000B2D1B4F86A000028AED173E0B4F86200AA
:1035800080B32068416989072CD5B4F862100329FB
:103590000CD9E16B402909D9E16D09680162E06D40
:1035A000001DE065B4F86200001F19E0B4F8621075
:1035B00001290BD9E16B49B1E16D09880184E06D06
:1035C000801CE065B4F86200801E09E0E16D0978B6
:1035D00080F82010E06D401CE065B4F86200401EE9
:1035E000A4F86200B4F86A0068B32068416911F475
:1035F000604F28D04169090409D5006B616E0860ED
:10360000606E001D6066B4F86A00001F19E0416931
:1036100001F4C041B1F5005F09D9008E616E0880E8
:10362000606E801C6066B4F86A00801E09E090F845
:103630003000616E0870606E401C6066B4F86A000D
:10364000401EA4F86A00681C04D0FDF719FF801B17
:10365000A84289D2B4F8620000288FD1B4F86A0079
:1036600000288BD10022334608212046009500F027
:103670003CFD28B1D4F8840040F02000C4F8840058
:10368000204600F0C3FC84F8808084F88190D4F850
:10369000840000283FF4D8AE012093E670477047BD
:1036A00010B5040003D094F83D0010B107E00120EC
:1036B00010BD002084F83C00204600F00DF80220E8
:1036C00084F83D002068211D00F03EFD012084F8B3
:1036D0003D00002010BD000008B50068144A1549DF
:1036E00090420ED1086840F002000860086803228A
:1036F000012100F0020000901D20FDF7D5FE1D20E5
:1037000010E00D4A904211D1086840F010000860A6
:1037100008680322002100F0100000903620FDF719
:10372000C3FE3620BDE80840FDF7C3BE08BD00005B
:1037300000040040E8440258001000400168CA68D4
:1037400042F00102CA600068018841F00101018075
:1037500000207047704770B50446006801694FF05B
:103760000005C943890715D4C168C943890711D425
:10377000E91E0161012020772068806980072046CA
:1037800002D0FFF7E7FF04E000F0A5F8204600F0C4
:10379000A3F8257720680169C943490717D4C16890
:1037A000C943490713D46FF0040101610220207757
:1037B0002068806910F4407F204602D0FFF7CAFFDE
:1037C00004E000F088F8204600F086F825772068AD
:1037D0000169C943090716D4C168C943090712D44E
:1037E0006FF008010161042020772068C06980071C
:1037F000204602D0FFF7AEFF04E000F06CF8204650
:1038000000F06AF8257720680169C943C90617D412
:10381000C168C943C90613D46FF0100101610820C3
:1038200020772068C06910F4407F204602D0FFF75F
:1038300091FF04E000F04FF8204600F04DF82577A6
:1038400020680169C943C90708D1C168C943C907CC
:1038500004D1891E0161204600F040F8206801690A
:103860006FF08005C943090607D4C168C94309063A
:1038700003D405612046FFF711FF20680169C943A1
:10388000C90507D4C168C943090603D405612046A8
:10389000FFF704FF20680169C943490609D4C168DC
:1038A000C943490605D46FF040010161204600F08C
:1038B00035F820680169C94389060BD4C168C9433A
:1038C000890607D46FF0200101612046BDE87040F1
:1038D000FFF7E5BE70BD70477047000010B5006887
:1038E0000849094C884206D1618808A0FCF7BAFB58
:1038F0000020608010BD08498842FBD10120207063
:1039000010BD0000000400403C0000246672616DA0
:10391000653A25640D0A00000010004070477047AA
:10392000704790F8791090F87A00084370470000CB
:1039300070B502680446D0691368916810F00F0FE3
:1039400064D0594D03F490760D40354376D0C507C9
:1039500007D0DD0505D501251562E26F42F00102B1
:10396000E267820708D5CA0706D0256802222A62C4
:10397000E26F42F00402E267420708D5CA0706D0A8
:10398000256804222A62E26F42F00202E26702071F
:103990000ED503F0200201F080552A4352EAC1728D
:1039A00006D0256808222A62E26F42F00802E26728
:1039B000E26F002A3AD0800608D503F0200001F01B
:1039C0008051084302D0204600F0C8FCE06F000799
:1039D00003D42068806840062AD5204600F0B0FC59
:1039E0002068816849061ED5816821F04001816008
:1039F000606FC0B12D490165606FFDF759FF002868
:103A000014D0606F016DBDE870400847850615D57C
:103A100003F0200501F0805635430FD02046BDE865
:103A2000704000F09BBC2046FFF77AFF70BD05E0B8
:103A30002046FFF775FF0020E067F7E7C6024FF06A
:103A400020050CD54E020AD5E803106284F879509F
:103A500084F87A502046BDE87040FFF760BF060644
:103A60000AD503F0800601F400010E4304D020467D
:103A7000BDE8704000F002BF41060BD5590609D5DC
:103A80001168204621F04001116084F8795000F05F
:103A900097F8CBE70002C9D55800C7D5106820F0C9
:103AA00080401060C2E70000010000102D4300902C
:103AB00010B5040003D094F8790010B107E001209C
:103AC00010BD002084F878002046FDF7F7FC242084
:103AD00084F879002068016821F001010160204626
:103AE00000F078FC0128EBD0606B10B1204600F0AC
:103AF0008BFB2068416821F4904141602068816817
:103B000021F02A0181602068016841F00101016013
:103B10002046BDE8104000F0DBBB90F87A30202B47
:103B20004CD1B9B1B2B190F87830012B46D0012315
:103B300080F878304166A0F86820A0F86A20FF225B
:103B40008168B1F5805F07D07F2351B1B1F1805F0B
:103B50000CD010E001207047016921B940F2FF113B
:103B600007E0016909BBA0F86C2004E00169E1B13C
:103B70003F21A0F86C100021C167222280F87A2032
:103B800080F8781001688A6842F001028A60016852
:103B90000A6892000CD50A6842F480720A600068D4
:103BA000816841F08051816006E0A0F86C30E2E766
:103BB000086840F490700860002070470220704749
:103BC0007047FEE770B5144C606B144D400609D584
:103BD000E8688047206B20F040002063A06B40F035
:103BE0004000A063606B800615D503F093FFA868C2
:103BF0008047A06B40F02000A0634FF0A440D0F8B5
:103C0000CC1121F00101C0F8CC11D0F80C1221F038
:103C10000101C0F80C1270BD003000520C000024ED
:103C2000F0B504688B88E568C5F30B452B441D048B
:103C3000882303EBC213E65806F47046E650046886
:103C40000F68E668C6F30B46761C3E442E43E650EA
:103C500003688C89DD68C5F30A052C4425048C248F
:103C600004EBC2141E5906F470461E5103688F6897
:103C7000DE68C6F30A06761C3E442E431E510468D5
:103C8000942303EBC213E55825F00705E5500568BA
:103C90000C69EC5091F8313005681F0291F8323010
:103CA0001C040B7E1E069C2303EBC21355F803C0B5
:103CB0004FF0000C45F803C091F8305034433D43B9
:103CC00025430468E5500468982303EBC213E558C4
:103CD00025F0FF05E55005684C69EC500468A02309
:103CE00003EBC213E55840F20776B543E550D1E93E
:103CF00007452C430568EC500468AC2303EBC21362
:103D0000E55844F803C005684C6AEC500B698BB366
:103D1000012B32D0042B32D0022B30D0032B2ED0EB
:103D2000072B2CD001230568B02404EBC2142E59B4
:103D300006F0E0262E51D1E90065AD1B0E8D5D43E6
:103D40005E43ED1D45EA064305682B510468B42324
:103D500003EBC213E5586FF30A05E5500468C96A1E
:103D6000E1500068842101EBC211425842F0010287
:103D70004250F0BDFFE70423D5E70323D3E7022336
:103D8000D1E7000070B54FF0A445D5F80002144CFF
:103D9000144E80070FD5D5F8040240F00200C5F894
:103DA0000402206B20F07E00206330688047206B87
:103DB00040F060002063D5F8C00180070FD5D5F82A
:103DC000C40140F00200C5F8C401206B20F07E0061
:103DD000206370688047206B40F06000206370BDF6
:103DE000003000520C000024704770472DE9F04766
:103DF000DFF8E48004460F464FF00009D8F80000D1
:103E0000C043800709D0344D283D286820F08060E9
:103E10002860FDF735FB064607E00120BDE8F08786
:103E2000FDF72EFB801B02284ED828680001F7D42E
:103E3000D8F80010226821F47C3141EA0231C8F838
:103E40000010207A4FF4FE02A1884002491EA0F51E
:103E5000007080B2C1F308010843A189491E02EA3B
:103E600001410843217C1202491E02EA0161084314
:103E70001949103108601848001D0168626921F075
:103E8000C001114301600168A26921F020011143C2
:103E900001606FB10168012F0ED041F40011016083
:103EA000286840F080602860FDF7EAFA04460DE0DB
:103EB000016841F40021F2E741F48011EFE7FDF7DA
:103EC000DFFA001B022801D90320A7E728680001B8
:103ED000F5D54846A2E70000284402582DE9F047EE
:103EE000DFF8E48004460F464FF00009D8F80000E0
:103EF000C043800709D0344D283D286820F0805009
:103F00002860FDF7BDFA064607E00120BDE8F0870E
:103F1000FDF7B6FA801B02284ED828688000F7D437
:103F2000D8F80010228821F07C7141EA0251C8F8CB
:103F30000010207A4FF4FE02A1884002491EA0F52D
:103F4000007080B2C1F308010843A189491E02EA4A
:103F500001410843217C1202491E02EA0161084323
:103F60001949183108601848001D0168626921F478
:103F70004061114301600168A26921F4007111439D
:103F800001606FB10168012F0ED041F080710160B6
:103F9000286840F080502860FDF772FA04460DE072
:103FA000016841F48001F2E741F40001EFE7FDF719
:103FB00067FA001B022801D90320A7E728688000C0
:103FC000F5D54846A2E70000284402580E4941F6BC
:103FD000583210B50968B1FBF2F102681468890023
:103FE000002324F480341460491E07D2D0F89010C6
:103FF00041F04001C0F89010032303E0026812680A
:10400000D203F1D4184610BD0000002410B5026898
:104010005169936943F0080393610268936943F01F
:10402000100393610268136823F0010313600268B0
:10403000136940F26B34A34313610268936823F45D
:104040004043936090F88120042A0CD08A060AD558
:10405000D0F8842042F08002C0F88420026893697E
:1040600043F02003936190F88120032A1DD04A0673
:104070000AD5D0F8842042F00402C0F884200268F7
:10408000936943F040039361826AB2F5800F0CD1CB
:104090000A060AD5D0F8842042F00202C0F8842033
:1040A0000268936943F0800393618A050AD5D0F8CA
:1040B000842042F00102C0F884200268936943F42E
:1040C00000739361C9050AD5D0F8841041F0080146
:1040D000C0F8841001688A6942F480728A61002104
